{
	"Millow/contracts/Escrow.sol": {
		"Escrow": {
			"abi": [
				{
					"inputs": [
						{
							"internalType": "address",
							"name": "_nftAddress",
							"type": "address"
						},
						{
							"internalType": "address payable",
							"name": "_seller",
							"type": "address"
						},
						{
							"internalType": "address",
							"name": "_inspector",
							"type": "address"
						},
						{
							"internalType": "address",
							"name": "_lender",
							"type": "address"
						}
					],
					"stateMutability": "nonpayable",
					"type": "constructor"
				},
				{
					"inputs": [
						{
							"internalType": "uint256",
							"name": "",
							"type": "uint256"
						},
						{
							"internalType": "address",
							"name": "",
							"type": "address"
						}
					],
					"name": "approval",
					"outputs": [
						{
							"internalType": "bool",
							"name": "",
							"type": "bool"
						}
					],
					"stateMutability": "view",
					"type": "function"
				},
				{
					"inputs": [
						{
							"internalType": "uint256",
							"name": "_nftID",
							"type": "uint256"
						}
					],
					"name": "approveSale",
					"outputs": [],
					"stateMutability": "nonpayable",
					"type": "function"
				},
				{
					"inputs": [
						{
							"internalType": "uint256",
							"name": "",
							"type": "uint256"
						}
					],
					"name": "buyer",
					"outputs": [
						{
							"internalType": "address",
							"name": "",
							"type": "address"
						}
					],
					"stateMutability": "view",
					"type": "function"
				},
				{
					"inputs": [
						{
							"internalType": "uint256",
							"name": "_nftID",
							"type": "uint256"
						}
					],
					"name": "cancelSale",
					"outputs": [],
					"stateMutability": "nonpayable",
					"type": "function"
				},
				{
					"inputs": [
						{
							"internalType": "uint256",
							"name": "_nftID",
							"type": "uint256"
						}
					],
					"name": "depositEarnest",
					"outputs": [],
					"stateMutability": "payable",
					"type": "function"
				},
				{
					"inputs": [
						{
							"internalType": "uint256",
							"name": "",
							"type": "uint256"
						}
					],
					"name": "escrowAmount",
					"outputs": [
						{
							"internalType": "uint256",
							"name": "",
							"type": "uint256"
						}
					],
					"stateMutability": "view",
					"type": "function"
				},
				{
					"inputs": [
						{
							"internalType": "uint256",
							"name": "_nftID",
							"type": "uint256"
						}
					],
					"name": "finalizeSale",
					"outputs": [],
					"stateMutability": "nonpayable",
					"type": "function"
				},
				{
					"inputs": [],
					"name": "getBalance",
					"outputs": [
						{
							"internalType": "uint256",
							"name": "",
							"type": "uint256"
						}
					],
					"stateMutability": "view",
					"type": "function"
				},
				{
					"inputs": [
						{
							"internalType": "uint256",
							"name": "",
							"type": "uint256"
						}
					],
					"name": "inspectionPassed",
					"outputs": [
						{
							"internalType": "bool",
							"name": "",
							"type": "bool"
						}
					],
					"stateMutability": "view",
					"type": "function"
				},
				{
					"inputs": [],
					"name": "inspector",
					"outputs": [
						{
							"internalType": "address",
							"name": "",
							"type": "address"
						}
					],
					"stateMutability": "view",
					"type": "function"
				},
				{
					"inputs": [
						{
							"internalType": "uint256",
							"name": "",
							"type": "uint256"
						}
					],
					"name": "isListed",
					"outputs": [
						{
							"internalType": "bool",
							"name": "",
							"type": "bool"
						}
					],
					"stateMutability": "view",
					"type": "function"
				},
				{
					"inputs": [],
					"name": "lender",
					"outputs": [
						{
							"internalType": "address",
							"name": "",
							"type": "address"
						}
					],
					"stateMutability": "view",
					"type": "function"
				},
				{
					"inputs": [
						{
							"internalType": "uint256",
							"name": "_nftID",
							"type": "uint256"
						},
						{
							"internalType": "address",
							"name": "_buyer",
							"type": "address"
						},
						{
							"internalType": "uint256",
							"name": "_purchasePrice",
							"type": "uint256"
						},
						{
							"internalType": "uint256",
							"name": "_escrowAmount",
							"type": "uint256"
						}
					],
					"name": "list",
					"outputs": [],
					"stateMutability": "payable",
					"type": "function"
				},
				{
					"inputs": [],
					"name": "nftAddress",
					"outputs": [
						{
							"internalType": "address",
							"name": "",
							"type": "address"
						}
					],
					"stateMutability": "view",
					"type": "function"
				},
				{
					"inputs": [
						{
							"internalType": "uint256",
							"name": "",
							"type": "uint256"
						}
					],
					"name": "purchasePrice",
					"outputs": [
						{
							"internalType": "uint256",
							"name": "",
							"type": "uint256"
						}
					],
					"stateMutability": "view",
					"type": "function"
				},
				{
					"inputs": [],
					"name": "seller",
					"outputs": [
						{
							"internalType": "address payable",
							"name": "",
							"type": "address"
						}
					],
					"stateMutability": "view",
					"type": "function"
				},
				{
					"inputs": [
						{
							"internalType": "uint256",
							"name": "_nftID",
							"type": "uint256"
						},
						{
							"internalType": "bool",
							"name": "_passes",
							"type": "bool"
						}
					],
					"name": "updateInspectionStatus",
					"outputs": [],
					"stateMutability": "nonpayable",
					"type": "function"
				},
				{
					"stateMutability": "payable",
					"type": "receive"
				}
			],
			"devdoc": {
				"kind": "dev",
				"methods": {},
				"version": 1
			},
			"evm": {
				"assembly": "    /* \"Millow/contracts/Escrow.sol\":203:3832  contract Escrow {... */\n  mstore(0x40, 0x80)\n    /* \"Millow/contracts/Escrow.sol\":1140:1411  constructor(... */\n  callvalue\n  dup1\n  iszero\n  tag_1\n  jumpi\n  0x00\n  dup1\n  revert\ntag_1:\n  pop\n  mload(0x40)\n  sub(codesize, bytecodeSize)\n  dup1\n  bytecodeSize\n  dup4\n  codecopy\n  dup2\n  dup2\n  add\n  0x40\n  mstore\n  dup2\n  add\n  swap1\n  tag_2\n  swap2\n  swap1\n  tag_3\n  jump\t// in\ntag_2:\n    /* \"Millow/contracts/Escrow.sol\":1305:1316  _nftAddress */\n  dup4\n    /* \"Millow/contracts/Escrow.sol\":1292:1302  nftAddress */\n  0x00\n  dup1\n    /* \"Millow/contracts/Escrow.sol\":1292:1316  nftAddress = _nftAddress */\n  0x0100\n  exp\n  dup2\n  sload\n  dup2\n  0xffffffffffffffffffffffffffffffffffffffff\n  mul\n  not\n  and\n  swap1\n  dup4\n  0xffffffffffffffffffffffffffffffffffffffff\n  and\n  mul\n  or\n  swap1\n  sstore\n  pop\n    /* \"Millow/contracts/Escrow.sol\":1336:1343  _seller */\n  dup3\n    /* \"Millow/contracts/Escrow.sol\":1327:1333  seller */\n  0x01\n  0x00\n    /* \"Millow/contracts/Escrow.sol\":1327:1343  seller = _seller */\n  0x0100\n  exp\n  dup2\n  sload\n  dup2\n  0xffffffffffffffffffffffffffffffffffffffff\n  mul\n  not\n  and\n  swap1\n  dup4\n  0xffffffffffffffffffffffffffffffffffffffff\n  and\n  mul\n  or\n  swap1\n  sstore\n  pop\n    /* \"Millow/contracts/Escrow.sol\":1366:1376  _inspector */\n  dup2\n    /* \"Millow/contracts/Escrow.sol\":1354:1363  inspector */\n  0x02\n  0x00\n    /* \"Millow/contracts/Escrow.sol\":1354:1376  inspector = _inspector */\n  0x0100\n  exp\n  dup2\n  sload\n  dup2\n  0xffffffffffffffffffffffffffffffffffffffff\n  mul\n  not\n  and\n  swap1\n  dup4\n  0xffffffffffffffffffffffffffffffffffffffff\n  and\n  mul\n  or\n  swap1\n  sstore\n  pop\n    /* \"Millow/contracts/Escrow.sol\":1396:1403  _lender */\n  dup1\n    /* \"Millow/contracts/Escrow.sol\":1387:1393  lender */\n  0x03\n  0x00\n    /* \"Millow/contracts/Escrow.sol\":1387:1403  lender = _lender */\n  0x0100\n  exp\n  dup2\n  sload\n  dup2\n  0xffffffffffffffffffffffffffffffffffffffff\n  mul\n  not\n  and\n  swap1\n  dup4\n  0xffffffffffffffffffffffffffffffffffffffff\n  and\n  mul\n  or\n  swap1\n  sstore\n  pop\n    /* \"Millow/contracts/Escrow.sol\":1140:1411  constructor(... */\n  pop\n  pop\n  pop\n  pop\n    /* \"Millow/contracts/Escrow.sol\":203:3832  contract Escrow {... */\n  jump(tag_6)\n    /* \"#utility.yul\":88:205   */\ntag_8:\n    /* \"#utility.yul\":197:198   */\n  0x00\n    /* \"#utility.yul\":194:195   */\n  dup1\n    /* \"#utility.yul\":187:199   */\n  revert\n    /* \"#utility.yul\":334:460   */\ntag_10:\n    /* \"#utility.yul\":371:378   */\n  0x00\n    /* \"#utility.yul\":411:453   */\n  0xffffffffffffffffffffffffffffffffffffffff\n    /* \"#utility.yul\":404:409   */\n  dup3\n    /* \"#utility.yul\":400:454   */\n  and\n    /* \"#utility.yul\":389:454   */\n  swap1\n  pop\n    /* \"#utility.yul\":334:460   */\n  swap2\n  swap1\n  pop\n  jump\t// out\n    /* \"#utility.yul\":466:562   */\ntag_11:\n    /* \"#utility.yul\":503:510   */\n  0x00\n    /* \"#utility.yul\":532:556   */\n  tag_23\n    /* \"#utility.yul\":550:555   */\n  dup3\n    /* \"#utility.yul\":532:556   */\n  tag_10\n  jump\t// in\ntag_23:\n    /* \"#utility.yul\":521:556   */\n  swap1\n  pop\n    /* \"#utility.yul\":466:562   */\n  swap2\n  swap1\n  pop\n  jump\t// out\n    /* \"#utility.yul\":568:690   */\ntag_12:\n    /* \"#utility.yul\":641:665   */\n  tag_25\n    /* \"#utility.yul\":659:664   */\n  dup2\n    /* \"#utility.yul\":641:665   */\n  tag_11\n  jump\t// in\ntag_25:\n    /* \"#utility.yul\":634:639   */\n  dup2\n    /* \"#utility.yul\":631:666   */\n  eq\n    /* \"#utility.yul\":621:684   */\n  tag_26\n  jumpi\n    /* \"#utility.yul\":680:681   */\n  0x00\n    /* \"#utility.yul\":677:678   */\n  dup1\n    /* \"#utility.yul\":670:682   */\n  revert\n    /* \"#utility.yul\":621:684   */\ntag_26:\n    /* \"#utility.yul\":568:690   */\n  pop\n  jump\t// out\n    /* \"#utility.yul\":696:839   */\ntag_13:\n    /* \"#utility.yul\":753:758   */\n  0x00\n    /* \"#utility.yul\":784:790   */\n  dup2\n    /* \"#utility.yul\":778:791   */\n  mload\n    /* \"#utility.yul\":769:791   */\n  swap1\n  pop\n    /* \"#utility.yul\":800:833   */\n  tag_28\n    /* \"#utility.yul\":827:832   */\n  dup2\n    /* \"#utility.yul\":800:833   */\n  tag_12\n  jump\t// in\ntag_28:\n    /* \"#utility.yul\":696:839   */\n  swap3\n  swap2\n  pop\n  pop\n  jump\t// out\n    /* \"#utility.yul\":845:949   */\ntag_14:\n    /* \"#utility.yul\":890:897   */\n  0x00\n    /* \"#utility.yul\":919:943   */\n  tag_30\n    /* \"#utility.yul\":937:942   */\n  dup3\n    /* \"#utility.yul\":919:943   */\n  tag_10\n  jump\t// in\ntag_30:\n    /* \"#utility.yul\":908:943   */\n  swap1\n  pop\n    /* \"#utility.yul\":845:949   */\n  swap2\n  swap1\n  pop\n  jump\t// out\n    /* \"#utility.yul\":955:1093   */\ntag_15:\n    /* \"#utility.yul\":1036:1068   */\n  tag_32\n    /* \"#utility.yul\":1062:1067   */\n  dup2\n    /* \"#utility.yul\":1036:1068   */\n  tag_14\n  jump\t// in\ntag_32:\n    /* \"#utility.yul\":1029:1034   */\n  dup2\n    /* \"#utility.yul\":1026:1069   */\n  eq\n    /* \"#utility.yul\":1016:1087   */\n  tag_33\n  jumpi\n    /* \"#utility.yul\":1083:1084   */\n  0x00\n    /* \"#utility.yul\":1080:1081   */\n  dup1\n    /* \"#utility.yul\":1073:1085   */\n  revert\n    /* \"#utility.yul\":1016:1087   */\ntag_33:\n    /* \"#utility.yul\":955:1093   */\n  pop\n  jump\t// out\n    /* \"#utility.yul\":1099:1258   */\ntag_16:\n    /* \"#utility.yul\":1164:1169   */\n  0x00\n    /* \"#utility.yul\":1195:1201   */\n  dup2\n    /* \"#utility.yul\":1189:1202   */\n  mload\n    /* \"#utility.yul\":1180:1202   */\n  swap1\n  pop\n    /* \"#utility.yul\":1211:1252   */\n  tag_35\n    /* \"#utility.yul\":1246:1251   */\n  dup2\n    /* \"#utility.yul\":1211:1252   */\n  tag_15\n  jump\t// in\ntag_35:\n    /* \"#utility.yul\":1099:1258   */\n  swap3\n  swap2\n  pop\n  pop\n  jump\t// out\n    /* \"#utility.yul\":1264:2100   */\ntag_3:\n    /* \"#utility.yul\":1369:1375   */\n  0x00\n    /* \"#utility.yul\":1377:1383   */\n  dup1\n    /* \"#utility.yul\":1385:1391   */\n  0x00\n    /* \"#utility.yul\":1393:1399   */\n  dup1\n    /* \"#utility.yul\":1442:1445   */\n  0x80\n    /* \"#utility.yul\":1430:1439   */\n  dup6\n    /* \"#utility.yul\":1421:1428   */\n  dup8\n    /* \"#utility.yul\":1417:1440   */\n  sub\n    /* \"#utility.yul\":1413:1446   */\n  slt\n    /* \"#utility.yul\":1410:1530   */\n  iszero\n  tag_37\n  jumpi\n    /* \"#utility.yul\":1449:1528   */\n  tag_38\n  tag_8\n  jump\t// in\ntag_38:\n    /* \"#utility.yul\":1410:1530   */\ntag_37:\n    /* \"#utility.yul\":1569:1570   */\n  0x00\n    /* \"#utility.yul\":1594:1658   */\n  tag_39\n    /* \"#utility.yul\":1650:1657   */\n  dup8\n    /* \"#utility.yul\":1641:1647   */\n  dup3\n    /* \"#utility.yul\":1630:1639   */\n  dup9\n    /* \"#utility.yul\":1626:1648   */\n  add\n    /* \"#utility.yul\":1594:1658   */\n  tag_13\n  jump\t// in\ntag_39:\n    /* \"#utility.yul\":1584:1658   */\n  swap5\n  pop\n    /* \"#utility.yul\":1540:1668   */\n  pop\n    /* \"#utility.yul\":1707:1709   */\n  0x20\n    /* \"#utility.yul\":1733:1805   */\n  tag_40\n    /* \"#utility.yul\":1797:1804   */\n  dup8\n    /* \"#utility.yul\":1788:1794   */\n  dup3\n    /* \"#utility.yul\":1777:1786   */\n  dup9\n    /* \"#utility.yul\":1773:1795   */\n  add\n    /* \"#utility.yul\":1733:1805   */\n  tag_16\n  jump\t// in\ntag_40:\n    /* \"#utility.yul\":1723:1805   */\n  swap4\n  pop\n    /* \"#utility.yul\":1678:1815   */\n  pop\n    /* \"#utility.yul\":1854:1856   */\n  0x40\n    /* \"#utility.yul\":1880:1944   */\n  tag_41\n    /* \"#utility.yul\":1936:1943   */\n  dup8\n    /* \"#utility.yul\":1927:1933   */\n  dup3\n    /* \"#utility.yul\":1916:1925   */\n  dup9\n    /* \"#utility.yul\":1912:1934   */\n  add\n    /* \"#utility.yul\":1880:1944   */\n  tag_13\n  jump\t// in\ntag_41:\n    /* \"#utility.yul\":1870:1944   */\n  swap3\n  pop\n    /* \"#utility.yul\":1825:1954   */\n  pop\n    /* \"#utility.yul\":1993:1995   */\n  0x60\n    /* \"#utility.yul\":2019:2083   */\n  tag_42\n    /* \"#utility.yul\":2075:2082   */\n  dup8\n    /* \"#utility.yul\":2066:2072   */\n  dup3\n    /* \"#utility.yul\":2055:2064   */\n  dup9\n    /* \"#utility.yul\":2051:2073   */\n  add\n    /* \"#utility.yul\":2019:2083   */\n  tag_13\n  jump\t// in\ntag_42:\n    /* \"#utility.yul\":2009:2083   */\n  swap2\n  pop\n    /* \"#utility.yul\":1964:2093   */\n  pop\n    /* \"#utility.yul\":1264:2100   */\n  swap3\n  swap6\n  swap2\n  swap5\n  pop\n  swap3\n  pop\n  jump\t// out\n    /* \"Millow/contracts/Escrow.sol\":203:3832  contract Escrow {... */\ntag_6:\n  dataSize(sub_0)\n  dup1\n  dataOffset(sub_0)\n  0x00\n  codecopy\n  0x00\n  return\nstop\n\nsub_0: assembly {\n        /* \"Millow/contracts/Escrow.sol\":203:3832  contract Escrow {... */\n      mstore(0x40, 0x80)\n      jumpi(tag_1, lt(calldatasize, 0x04))\n      shr(0xe0, calldataload(0x00))\n      dup1\n      0x9d0e5fd6\n      gt\n      tag_20\n      jumpi\n      dup1\n      0xbd94b005\n      gt\n      tag_21\n      jumpi\n      dup1\n      0xbd94b005\n      eq\n      tag_15\n      jumpi\n      dup1\n      0xc9f0ec7e\n      eq\n      tag_16\n      jumpi\n      dup1\n      0xe740f770\n      eq\n      tag_17\n      jumpi\n      dup1\n      0xed2cee9e\n      eq\n      tag_18\n      jumpi\n      dup1\n      0xfcce4883\n      eq\n      tag_19\n      jumpi\n      jump(tag_2)\n    tag_21:\n      dup1\n      0x9d0e5fd6\n      eq\n      tag_11\n      jumpi\n      dup1\n      0xaa929380\n      eq\n      tag_12\n      jumpi\n      dup1\n      0xb848de35\n      eq\n      tag_13\n      jumpi\n      dup1\n      0xbcead63e\n      eq\n      tag_14\n      jumpi\n      jump(tag_2)\n    tag_20:\n      dup1\n      0x5bf8633a\n      gt\n      tag_22\n      jumpi\n      dup1\n      0x5bf8633a\n      eq\n      tag_7\n      jumpi\n      dup1\n      0x5d19e56c\n      eq\n      tag_8\n      jumpi\n      dup1\n      0x5eed5fff\n      eq\n      tag_9\n      jumpi\n      dup1\n      0x77fbc4ae\n      eq\n      tag_10\n      jumpi\n      jump(tag_2)\n    tag_22:\n      dup1\n      0x08551a53\n      eq\n      tag_3\n      jumpi\n      dup1\n      0x12065fe0\n      eq\n      tag_4\n      jumpi\n      dup1\n      0x14a72feb\n      eq\n      tag_5\n      jumpi\n      dup1\n      0x4dd4acaf\n      eq\n      tag_6\n      jumpi\n      jump(tag_2)\n    tag_1:\n      jumpi(tag_2, calldatasize)\n      stop\n    tag_2:\n      0x00\n      dup1\n      revert\n        /* \"Millow/contracts/Escrow.sol\":258:287  address payable public seller */\n    tag_3:\n      callvalue\n      dup1\n      iszero\n      tag_25\n      jumpi\n      0x00\n      dup1\n      revert\n    tag_25:\n      pop\n      tag_26\n      tag_27\n      jump\t// in\n    tag_26:\n      mload(0x40)\n      tag_28\n      swap2\n      swap1\n      tag_29\n      jump\t// in\n    tag_28:\n      mload(0x40)\n      dup1\n      swap2\n      sub\n      swap1\n      return\n        /* \"Millow/contracts/Escrow.sol\":3726:3825  function getBalance() public view returns (uint256) {... */\n    tag_4:\n      callvalue\n      dup1\n      iszero\n      tag_30\n      jumpi\n      0x00\n      dup1\n      revert\n    tag_30:\n      pop\n      tag_31\n      tag_32\n      jump\t// in\n    tag_31:\n      mload(0x40)\n      tag_33\n      swap2\n      swap1\n      tag_34\n      jump\t// in\n    tag_33:\n      mload(0x40)\n      dup1\n      swap2\n      sub\n      swap1\n      return\n        /* \"Millow/contracts/Escrow.sol\":2378:2476  function approveSale(uint256 _nftID) public {... */\n    tag_5:\n      callvalue\n      dup1\n      iszero\n      tag_35\n      jumpi\n      0x00\n      dup1\n      revert\n    tag_35:\n      pop\n      tag_36\n      0x04\n      dup1\n      calldatasize\n      sub\n      dup2\n      add\n      swap1\n      tag_37\n      swap2\n      swap1\n      tag_38\n      jump\t// in\n    tag_37:\n      tag_39\n      jump\t// in\n    tag_36:\n      stop\n        /* \"Millow/contracts/Escrow.sol\":969:1009  mapping(uint256 => address) public buyer */\n    tag_6:\n      callvalue\n      dup1\n      iszero\n      tag_40\n      jumpi\n      0x00\n      dup1\n      revert\n    tag_40:\n      pop\n      tag_41\n      0x04\n      dup1\n      calldatasize\n      sub\n      dup2\n      add\n      swap1\n      tag_42\n      swap2\n      swap1\n      tag_38\n      jump\t// in\n    tag_42:\n      tag_43\n      jump\t// in\n    tag_41:\n      mload(0x40)\n      tag_44\n      swap2\n      swap1\n      tag_45\n      jump\t// in\n    tag_44:\n      mload(0x40)\n      dup1\n      swap2\n      sub\n      swap1\n      return\n        /* \"Millow/contracts/Escrow.sol\":226:251  address public nftAddress */\n    tag_7:\n      callvalue\n      dup1\n      iszero\n      tag_46\n      jumpi\n      0x00\n      dup1\n      revert\n    tag_46:\n      pop\n      tag_47\n      tag_48\n      jump\t// in\n    tag_47:\n      mload(0x40)\n      tag_49\n      swap2\n      swap1\n      tag_45\n      jump\t// in\n    tag_49:\n      mload(0x40)\n      dup1\n      swap2\n      sub\n      swap1\n      return\n        /* \"Millow/contracts/Escrow.sol\":865:912  mapping(uint256 => uint256) public escrowAmount */\n    tag_8:\n      callvalue\n      dup1\n      iszero\n      tag_50\n      jumpi\n      0x00\n      dup1\n      revert\n    tag_50:\n      pop\n      tag_51\n      0x04\n      dup1\n      calldatasize\n      sub\n      dup2\n      add\n      swap1\n      tag_52\n      swap2\n      swap1\n      tag_38\n      jump\t// in\n    tag_52:\n      tag_53\n      jump\t// in\n    tag_51:\n      mload(0x40)\n      tag_54\n      swap2\n      swap1\n      tag_34\n      jump\t// in\n    tag_54:\n      mload(0x40)\n      dup1\n      swap2\n      sub\n      swap1\n      return\n        /* \"Millow/contracts/Escrow.sol\":1016:1064  mapping(uint256 => bool) public inspectionPassed */\n    tag_9:\n      callvalue\n      dup1\n      iszero\n      tag_55\n      jumpi\n      0x00\n      dup1\n      revert\n    tag_55:\n      pop\n      tag_56\n      0x04\n      dup1\n      calldatasize\n      sub\n      dup2\n      add\n      swap1\n      tag_57\n      swap2\n      swap1\n      tag_38\n      jump\t// in\n    tag_57:\n      tag_58\n      jump\t// in\n    tag_56:\n      mload(0x40)\n      tag_59\n      swap2\n      swap1\n      tag_60\n      jump\t// in\n    tag_59:\n      mload(0x40)\n      dup1\n      swap2\n      sub\n      swap1\n      return\n        /* \"Millow/contracts/Escrow.sol\":810:858  mapping(uint256 => uint256) public purchasePrice */\n    tag_10:\n      callvalue\n      dup1\n      iszero\n      tag_61\n      jumpi\n      0x00\n      dup1\n      revert\n    tag_61:\n      pop\n      tag_62\n      0x04\n      dup1\n      calldatasize\n      sub\n      dup2\n      add\n      swap1\n      tag_63\n      swap2\n      swap1\n      tag_38\n      jump\t// in\n    tag_63:\n      tag_64\n      jump\t// in\n    tag_62:\n      mload(0x40)\n      tag_65\n      swap2\n      swap1\n      tag_34\n      jump\t// in\n    tag_65:\n      mload(0x40)\n      dup1\n      swap2\n      sub\n      swap1\n      return\n        /* \"Millow/contracts/Escrow.sol\":2191:2350  function updateInspectionStatus(uint256 _nftID, bool _passes)... */\n    tag_11:\n      callvalue\n      dup1\n      iszero\n      tag_66\n      jumpi\n      0x00\n      dup1\n      revert\n    tag_66:\n      pop\n      tag_67\n      0x04\n      dup1\n      calldatasize\n      sub\n      dup2\n      add\n      swap1\n      tag_68\n      swap2\n      swap1\n      tag_69\n      jump\t// in\n    tag_68:\n      tag_70\n      jump\t// in\n    tag_67:\n      stop\n        /* \"Millow/contracts/Escrow.sol\":2741:3276  function finalizeSale(uint256 _nftID) public {... */\n    tag_12:\n      callvalue\n      dup1\n      iszero\n      tag_71\n      jumpi\n      0x00\n      dup1\n      revert\n    tag_71:\n      pop\n      tag_72\n      0x04\n      dup1\n      calldatasize\n      sub\n      dup2\n      add\n      swap1\n      tag_73\n      swap2\n      swap1\n      tag_38\n      jump\t// in\n    tag_73:\n      tag_74\n      jump\t// in\n    tag_72:\n      stop\n        /* \"Millow/contracts/Escrow.sol\":1071:1131  mapping(uint256 => mapping(address => bool)) public approval */\n    tag_13:\n      callvalue\n      dup1\n      iszero\n      tag_75\n      jumpi\n      0x00\n      dup1\n      revert\n    tag_75:\n      pop\n      tag_76\n      0x04\n      dup1\n      calldatasize\n      sub\n      dup2\n      add\n      swap1\n      tag_77\n      swap2\n      swap1\n      tag_78\n      jump\t// in\n    tag_77:\n      tag_79\n      jump\t// in\n    tag_76:\n      mload(0x40)\n      tag_80\n      swap2\n      swap1\n      tag_60\n      jump\t// in\n    tag_80:\n      mload(0x40)\n      dup1\n      swap2\n      sub\n      swap1\n      return\n        /* \"Millow/contracts/Escrow.sol\":325:346  address public lender */\n    tag_14:\n      callvalue\n      dup1\n      iszero\n      tag_81\n      jumpi\n      0x00\n      dup1\n      revert\n    tag_81:\n      pop\n      tag_82\n      tag_83\n      jump\t// in\n    tag_82:\n      mload(0x40)\n      tag_84\n      swap2\n      swap1\n      tag_45\n      jump\t// in\n    tag_84:\n      mload(0x40)\n      dup1\n      swap2\n      sub\n      swap1\n      return\n        /* \"Millow/contracts/Escrow.sol\":3418:3681  function cancelSale(uint256 _nftID) public {... */\n    tag_15:\n      callvalue\n      dup1\n      iszero\n      tag_85\n      jumpi\n      0x00\n      dup1\n      revert\n    tag_85:\n      pop\n      tag_86\n      0x04\n      dup1\n      calldatasize\n      sub\n      dup2\n      add\n      swap1\n      tag_87\n      swap2\n      swap1\n      tag_38\n      jump\t// in\n    tag_87:\n      tag_88\n      jump\t// in\n    tag_86:\n      stop\n        /* \"Millow/contracts/Escrow.sol\":1420:1937  function list(... */\n    tag_16:\n      tag_89\n      0x04\n      dup1\n      calldatasize\n      sub\n      dup2\n      add\n      swap1\n      tag_90\n      swap2\n      swap1\n      tag_91\n      jump\t// in\n    tag_90:\n      tag_92\n      jump\t// in\n    tag_89:\n      stop\n        /* \"Millow/contracts/Escrow.sol\":2000:2133  function depositEarnest(uint256 _nftID) public payable onlyBuyer(_nftID) {... */\n    tag_17:\n      tag_93\n      0x04\n      dup1\n      calldatasize\n      sub\n      dup2\n      add\n      swap1\n      tag_94\n      swap2\n      swap1\n      tag_38\n      jump\t// in\n    tag_94:\n      tag_95\n      jump\t// in\n    tag_93:\n      stop\n        /* \"Millow/contracts/Escrow.sol\":294:318  address public inspector */\n    tag_18:\n      callvalue\n      dup1\n      iszero\n      tag_96\n      jumpi\n      0x00\n      dup1\n      revert\n    tag_96:\n      pop\n      tag_97\n      tag_98\n      jump\t// in\n    tag_97:\n      mload(0x40)\n      tag_99\n      swap2\n      swap1\n      tag_45\n      jump\t// in\n    tag_99:\n      mload(0x40)\n      dup1\n      swap2\n      sub\n      swap1\n      return\n        /* \"Millow/contracts/Escrow.sol\":762:803  mapping (uint256 => bool) public isListed */\n    tag_19:\n      callvalue\n      dup1\n      iszero\n      tag_100\n      jumpi\n      0x00\n      dup1\n      revert\n    tag_100:\n      pop\n      tag_101\n      0x04\n      dup1\n      calldatasize\n      sub\n      dup2\n      add\n      swap1\n      tag_102\n      swap2\n      swap1\n      tag_38\n      jump\t// in\n    tag_102:\n      tag_103\n      jump\t// in\n    tag_101:\n      mload(0x40)\n      tag_104\n      swap2\n      swap1\n      tag_60\n      jump\t// in\n    tag_104:\n      mload(0x40)\n      dup1\n      swap2\n      sub\n      swap1\n      return\n        /* \"Millow/contracts/Escrow.sol\":258:287  address payable public seller */\n    tag_27:\n      0x01\n      0x00\n      swap1\n      sload\n      swap1\n      0x0100\n      exp\n      swap1\n      div\n      0xffffffffffffffffffffffffffffffffffffffff\n      and\n      dup2\n      jump\t// out\n        /* \"Millow/contracts/Escrow.sol\":3726:3825  function getBalance() public view returns (uint256) {... */\n    tag_32:\n        /* \"Millow/contracts/Escrow.sol\":3769:3776  uint256 */\n      0x00\n        /* \"Millow/contracts/Escrow.sol\":3796:3817  address(this).balance */\n      selfbalance\n        /* \"Millow/contracts/Escrow.sol\":3789:3817  return address(this).balance */\n      swap1\n      pop\n        /* \"Millow/contracts/Escrow.sol\":3726:3825  function getBalance() public view returns (uint256) {... */\n      swap1\n      jump\t// out\n        /* \"Millow/contracts/Escrow.sol\":2378:2476  function approveSale(uint256 _nftID) public {... */\n    tag_39:\n        /* \"Millow/contracts/Escrow.sol\":2464:2468  true */\n      0x01\n        /* \"Millow/contracts/Escrow.sol\":2433:2441  approval */\n      0x09\n        /* \"Millow/contracts/Escrow.sol\":2433:2449  approval[_nftID] */\n      0x00\n        /* \"Millow/contracts/Escrow.sol\":2442:2448  _nftID */\n      dup4\n        /* \"Millow/contracts/Escrow.sol\":2433:2449  approval[_nftID] */\n      dup2\n      mstore\n      0x20\n      add\n      swap1\n      dup2\n      mstore\n      0x20\n      add\n      0x00\n      keccak256\n        /* \"Millow/contracts/Escrow.sol\":2433:2461  approval[_nftID][msg.sender] */\n      0x00\n        /* \"Millow/contracts/Escrow.sol\":2450:2460  msg.sender */\n      caller\n        /* \"Millow/contracts/Escrow.sol\":2433:2461  approval[_nftID][msg.sender] */\n      0xffffffffffffffffffffffffffffffffffffffff\n      and\n      0xffffffffffffffffffffffffffffffffffffffff\n      and\n      dup2\n      mstore\n      0x20\n      add\n      swap1\n      dup2\n      mstore\n      0x20\n      add\n      0x00\n      keccak256\n      0x00\n        /* \"Millow/contracts/Escrow.sol\":2433:2468  approval[_nftID][msg.sender] = true */\n      0x0100\n      exp\n      dup2\n      sload\n      dup2\n      0xff\n      mul\n      not\n      and\n      swap1\n      dup4\n      iszero\n      iszero\n      mul\n      or\n      swap1\n      sstore\n      pop\n        /* \"Millow/contracts/Escrow.sol\":2378:2476  function approveSale(uint256 _nftID) public {... */\n      pop\n      jump\t// out\n        /* \"Millow/contracts/Escrow.sol\":969:1009  mapping(uint256 => address) public buyer */\n    tag_43:\n      mstore(0x20, 0x07)\n      dup1\n      0x00\n      mstore\n      keccak256(0x00, 0x40)\n      0x00\n      swap2\n      pop\n      sload\n      swap1\n      0x0100\n      exp\n      swap1\n      div\n      0xffffffffffffffffffffffffffffffffffffffff\n      and\n      dup2\n      jump\t// out\n        /* \"Millow/contracts/Escrow.sol\":226:251  address public nftAddress */\n    tag_48:\n      0x00\n      dup1\n      sload\n      swap1\n      0x0100\n      exp\n      swap1\n      div\n      0xffffffffffffffffffffffffffffffffffffffff\n      and\n      dup2\n      jump\t// out\n        /* \"Millow/contracts/Escrow.sol\":865:912  mapping(uint256 => uint256) public escrowAmount */\n    tag_53:\n      mstore(0x20, 0x06)\n      dup1\n      0x00\n      mstore\n      keccak256(0x00, 0x40)\n      0x00\n      swap2\n      pop\n      swap1\n      pop\n      sload\n      dup2\n      jump\t// out\n        /* \"Millow/contracts/Escrow.sol\":1016:1064  mapping(uint256 => bool) public inspectionPassed */\n    tag_58:\n      mstore(0x20, 0x08)\n      dup1\n      0x00\n      mstore\n      keccak256(0x00, 0x40)\n      0x00\n      swap2\n      pop\n      sload\n      swap1\n      0x0100\n      exp\n      swap1\n      div\n      0xff\n      and\n      dup2\n      jump\t// out\n        /* \"Millow/contracts/Escrow.sol\":810:858  mapping(uint256 => uint256) public purchasePrice */\n    tag_64:\n      mstore(0x20, 0x05)\n      dup1\n      0x00\n      mstore\n      keccak256(0x00, 0x40)\n      0x00\n      swap2\n      pop\n      swap1\n      pop\n      sload\n      dup2\n      jump\t// out\n        /* \"Millow/contracts/Escrow.sol\":2191:2350  function updateInspectionStatus(uint256 _nftID, bool _passes)... */\n    tag_70:\n        /* \"Millow/contracts/Escrow.sol\":685:694  inspector */\n      0x02\n      0x00\n      swap1\n      sload\n      swap1\n      0x0100\n      exp\n      swap1\n      div\n      0xffffffffffffffffffffffffffffffffffffffff\n      and\n        /* \"Millow/contracts/Escrow.sol\":671:694  msg.sender == inspector */\n      0xffffffffffffffffffffffffffffffffffffffff\n      and\n        /* \"Millow/contracts/Escrow.sol\":671:681  msg.sender */\n      caller\n        /* \"Millow/contracts/Escrow.sol\":671:694  msg.sender == inspector */\n      0xffffffffffffffffffffffffffffffffffffffff\n      and\n      eq\n        /* \"Millow/contracts/Escrow.sol\":663:734  require(msg.sender == inspector, \"Only inspector can call this method\") */\n      tag_108\n      jumpi\n      mload(0x40)\n      0x08c379a000000000000000000000000000000000000000000000000000000000\n      dup2\n      mstore\n      0x04\n      add\n      tag_109\n      swap1\n      tag_110\n      jump\t// in\n    tag_109:\n      mload(0x40)\n      dup1\n      swap2\n      sub\n      swap1\n      revert\n    tag_108:\n        /* \"Millow/contracts/Escrow.sol\":2335:2342  _passes */\n      dup1\n        /* \"Millow/contracts/Escrow.sol\":2308:2324  inspectionPassed */\n      0x08\n        /* \"Millow/contracts/Escrow.sol\":2308:2332  inspectionPassed[_nftID] */\n      0x00\n        /* \"Millow/contracts/Escrow.sol\":2325:2331  _nftID */\n      dup5\n        /* \"Millow/contracts/Escrow.sol\":2308:2332  inspectionPassed[_nftID] */\n      dup2\n      mstore\n      0x20\n      add\n      swap1\n      dup2\n      mstore\n      0x20\n      add\n      0x00\n      keccak256\n      0x00\n        /* \"Millow/contracts/Escrow.sol\":2308:2342  inspectionPassed[_nftID] = _passes */\n      0x0100\n      exp\n      dup2\n      sload\n      dup2\n      0xff\n      mul\n      not\n      and\n      swap1\n      dup4\n      iszero\n      iszero\n      mul\n      or\n      swap1\n      sstore\n      pop\n        /* \"Millow/contracts/Escrow.sol\":2191:2350  function updateInspectionStatus(uint256 _nftID, bool _passes)... */\n      pop\n      pop\n      jump\t// out\n        /* \"Millow/contracts/Escrow.sol\":2741:3276  function finalizeSale(uint256 _nftID) public {... */\n    tag_74:\n        /* \"Millow/contracts/Escrow.sol\":2805:2821  inspectionPassed */\n      0x08\n        /* \"Millow/contracts/Escrow.sol\":2805:2829  inspectionPassed[_nftID] */\n      0x00\n        /* \"Millow/contracts/Escrow.sol\":2822:2828  _nftID */\n      dup3\n        /* \"Millow/contracts/Escrow.sol\":2805:2829  inspectionPassed[_nftID] */\n      dup2\n      mstore\n      0x20\n      add\n      swap1\n      dup2\n      mstore\n      0x20\n      add\n      0x00\n      keccak256\n      0x00\n      swap1\n      sload\n      swap1\n      0x0100\n      exp\n      swap1\n      div\n      0xff\n      and\n        /* \"Millow/contracts/Escrow.sol\":2797:2830  require(inspectionPassed[_nftID]) */\n      tag_113\n      jumpi\n      0x00\n      dup1\n      revert\n    tag_113:\n        /* \"Millow/contracts/Escrow.sol\":2849:2857  approval */\n      0x09\n        /* \"Millow/contracts/Escrow.sol\":2849:2865  approval[_nftID] */\n      0x00\n        /* \"Millow/contracts/Escrow.sol\":2858:2864  _nftID */\n      dup3\n        /* \"Millow/contracts/Escrow.sol\":2849:2865  approval[_nftID] */\n      dup2\n      mstore\n      0x20\n      add\n      swap1\n      dup2\n      mstore\n      0x20\n      add\n      0x00\n      keccak256\n        /* \"Millow/contracts/Escrow.sol\":2849:2880  approval[_nftID][buyer[_nftID]] */\n      0x00\n        /* \"Millow/contracts/Escrow.sol\":2866:2871  buyer */\n      0x07\n        /* \"Millow/contracts/Escrow.sol\":2866:2879  buyer[_nftID] */\n      0x00\n        /* \"Millow/contracts/Escrow.sol\":2872:2878  _nftID */\n      dup5\n        /* \"Millow/contracts/Escrow.sol\":2866:2879  buyer[_nftID] */\n      dup2\n      mstore\n      0x20\n      add\n      swap1\n      dup2\n      mstore\n      0x20\n      add\n      0x00\n      keccak256\n      0x00\n      swap1\n      sload\n      swap1\n      0x0100\n      exp\n      swap1\n      div\n      0xffffffffffffffffffffffffffffffffffffffff\n      and\n        /* \"Millow/contracts/Escrow.sol\":2849:2880  approval[_nftID][buyer[_nftID]] */\n      0xffffffffffffffffffffffffffffffffffffffff\n      and\n      0xffffffffffffffffffffffffffffffffffffffff\n      and\n      dup2\n      mstore\n      0x20\n      add\n      swap1\n      dup2\n      mstore\n      0x20\n      add\n      0x00\n      keccak256\n      0x00\n      swap1\n      sload\n      swap1\n      0x0100\n      exp\n      swap1\n      div\n      0xff\n      and\n        /* \"Millow/contracts/Escrow.sol\":2841:2881  require(approval[_nftID][buyer[_nftID]]) */\n      tag_114\n      jumpi\n      0x00\n      dup1\n      revert\n    tag_114:\n        /* \"Millow/contracts/Escrow.sol\":2900:2908  approval */\n      0x09\n        /* \"Millow/contracts/Escrow.sol\":2900:2916  approval[_nftID] */\n      0x00\n        /* \"Millow/contracts/Escrow.sol\":2909:2915  _nftID */\n      dup3\n        /* \"Millow/contracts/Escrow.sol\":2900:2916  approval[_nftID] */\n      dup2\n      mstore\n      0x20\n      add\n      swap1\n      dup2\n      mstore\n      0x20\n      add\n      0x00\n      keccak256\n        /* \"Millow/contracts/Escrow.sol\":2900:2924  approval[_nftID][seller] */\n      0x00\n        /* \"Millow/contracts/Escrow.sol\":2917:2923  seller */\n      0x01\n      0x00\n      swap1\n      sload\n      swap1\n      0x0100\n      exp\n      swap1\n      div\n      0xffffffffffffffffffffffffffffffffffffffff\n      and\n        /* \"Millow/contracts/Escrow.sol\":2900:2924  approval[_nftID][seller] */\n      0xffffffffffffffffffffffffffffffffffffffff\n      and\n      0xffffffffffffffffffffffffffffffffffffffff\n      and\n      dup2\n      mstore\n      0x20\n      add\n      swap1\n      dup2\n      mstore\n      0x20\n      add\n      0x00\n      keccak256\n      0x00\n      swap1\n      sload\n      swap1\n      0x0100\n      exp\n      swap1\n      div\n      0xff\n      and\n        /* \"Millow/contracts/Escrow.sol\":2892:2925  require(approval[_nftID][seller]) */\n      tag_115\n      jumpi\n      0x00\n      dup1\n      revert\n    tag_115:\n        /* \"Millow/contracts/Escrow.sol\":2944:2952  approval */\n      0x09\n        /* \"Millow/contracts/Escrow.sol\":2944:2960  approval[_nftID] */\n      0x00\n        /* \"Millow/contracts/Escrow.sol\":2953:2959  _nftID */\n      dup3\n        /* \"Millow/contracts/Escrow.sol\":2944:2960  approval[_nftID] */\n      dup2\n      mstore\n      0x20\n      add\n      swap1\n      dup2\n      mstore\n      0x20\n      add\n      0x00\n      keccak256\n        /* \"Millow/contracts/Escrow.sol\":2944:2968  approval[_nftID][lender] */\n      0x00\n        /* \"Millow/contracts/Escrow.sol\":2961:2967  lender */\n      0x03\n      0x00\n      swap1\n      sload\n      swap1\n      0x0100\n      exp\n      swap1\n      div\n      0xffffffffffffffffffffffffffffffffffffffff\n      and\n        /* \"Millow/contracts/Escrow.sol\":2944:2968  approval[_nftID][lender] */\n      0xffffffffffffffffffffffffffffffffffffffff\n      and\n      0xffffffffffffffffffffffffffffffffffffffff\n      and\n      dup2\n      mstore\n      0x20\n      add\n      swap1\n      dup2\n      mstore\n      0x20\n      add\n      0x00\n      keccak256\n      0x00\n      swap1\n      sload\n      swap1\n      0x0100\n      exp\n      swap1\n      div\n      0xff\n      and\n        /* \"Millow/contracts/Escrow.sol\":2936:2969  require(approval[_nftID][lender]) */\n      tag_116\n      jumpi\n      0x00\n      dup1\n      revert\n    tag_116:\n        /* \"Millow/contracts/Escrow.sol\":3013:3026  purchasePrice */\n      0x05\n        /* \"Millow/contracts/Escrow.sol\":3013:3034  purchasePrice[_nftID] */\n      0x00\n        /* \"Millow/contracts/Escrow.sol\":3027:3033  _nftID */\n      dup3\n        /* \"Millow/contracts/Escrow.sol\":3013:3034  purchasePrice[_nftID] */\n      dup2\n      mstore\n      0x20\n      add\n      swap1\n      dup2\n      mstore\n      0x20\n      add\n      0x00\n      keccak256\n      sload\n        /* \"Millow/contracts/Escrow.sol\":2988:3009  address(this).balance */\n      selfbalance\n        /* \"Millow/contracts/Escrow.sol\":2988:3034  address(this).balance >= purchasePrice[_nftID] */\n      lt\n      iszero\n        /* \"Millow/contracts/Escrow.sol\":2980:3035  require(address(this).balance >= purchasePrice[_nftID]) */\n      tag_117\n      jumpi\n      0x00\n      dup1\n      revert\n    tag_117:\n        /* \"Millow/contracts/Escrow.sol\":3067:3072  false */\n      0x00\n        /* \"Millow/contracts/Escrow.sol\":3048:3056  isListed */\n      0x04\n        /* \"Millow/contracts/Escrow.sol\":3048:3064  isListed[_nftID] */\n      0x00\n        /* \"Millow/contracts/Escrow.sol\":3057:3063  _nftID */\n      dup4\n        /* \"Millow/contracts/Escrow.sol\":3048:3064  isListed[_nftID] */\n      dup2\n      mstore\n      0x20\n      add\n      swap1\n      dup2\n      mstore\n      0x20\n      add\n      0x00\n      keccak256\n      0x00\n        /* \"Millow/contracts/Escrow.sol\":3048:3072  isListed[_nftID] = false */\n      0x0100\n      exp\n      dup2\n      sload\n      dup2\n      0xff\n      mul\n      not\n      and\n      swap1\n      dup4\n      iszero\n      iszero\n      mul\n      or\n      swap1\n      sstore\n      pop\n        /* \"Millow/contracts/Escrow.sol\":3086:3098  bool success */\n      0x00\n        /* \"Millow/contracts/Escrow.sol\":3112:3118  seller */\n      0x01\n      0x00\n      swap1\n      sload\n      swap1\n      0x0100\n      exp\n      swap1\n      div\n      0xffffffffffffffffffffffffffffffffffffffff\n      and\n        /* \"Millow/contracts/Escrow.sol\":3104:3124  payable(seller).call */\n      0xffffffffffffffffffffffffffffffffffffffff\n      and\n        /* \"Millow/contracts/Escrow.sol\":3132:3153  address(this).balance */\n      selfbalance\n        /* \"Millow/contracts/Escrow.sol\":3104:3158  payable(seller).call{value: address(this).balance}(\"\") */\n      mload(0x40)\n      tag_118\n      swap1\n      tag_119\n      jump\t// in\n    tag_118:\n      0x00\n      mload(0x40)\n      dup1\n      dup4\n      sub\n      dup2\n      dup6\n      dup8\n      gas\n      call\n      swap3\n      pop\n      pop\n      pop\n      returndatasize\n      dup1\n      0x00\n      dup2\n      eq\n      tag_122\n      jumpi\n      mload(0x40)\n      swap2\n      pop\n      and(add(returndatasize, 0x3f), not(0x1f))\n      dup3\n      add\n      0x40\n      mstore\n      returndatasize\n      dup3\n      mstore\n      returndatasize\n      0x00\n      0x20\n      dup5\n      add\n      returndatacopy\n      jump(tag_121)\n    tag_122:\n      0x60\n      swap2\n      pop\n    tag_121:\n      pop\n        /* \"Millow/contracts/Escrow.sol\":3085:3158  (bool success, ) = payable(seller).call{value: address(this).balance}(\"\") */\n      pop\n      swap1\n      pop\n        /* \"Millow/contracts/Escrow.sol\":3177:3184  success */\n      dup1\n        /* \"Millow/contracts/Escrow.sol\":3169:3185  require(success) */\n      tag_123\n      jumpi\n      0x00\n      dup1\n      revert\n    tag_123:\n        /* \"Millow/contracts/Escrow.sol\":3206:3216  nftAddress */\n      0x00\n      dup1\n      sload\n      swap1\n      0x0100\n      exp\n      swap1\n      div\n      0xffffffffffffffffffffffffffffffffffffffff\n      and\n        /* \"Millow/contracts/Escrow.sol\":3198:3230  IERC721(nftAddress).transferFrom */\n      0xffffffffffffffffffffffffffffffffffffffff\n      and\n      0x23b872dd\n        /* \"Millow/contracts/Escrow.sol\":3239:3243  this */\n      address\n        /* \"Millow/contracts/Escrow.sol\":3246:3251  buyer */\n      0x07\n        /* \"Millow/contracts/Escrow.sol\":3246:3259  buyer[_nftID] */\n      0x00\n        /* \"Millow/contracts/Escrow.sol\":3252:3258  _nftID */\n      dup7\n        /* \"Millow/contracts/Escrow.sol\":3246:3259  buyer[_nftID] */\n      dup2\n      mstore\n      0x20\n      add\n      swap1\n      dup2\n      mstore\n      0x20\n      add\n      0x00\n      keccak256\n      0x00\n      swap1\n      sload\n      swap1\n      0x0100\n      exp\n      swap1\n      div\n      0xffffffffffffffffffffffffffffffffffffffff\n      and\n        /* \"Millow/contracts/Escrow.sol\":3261:3267  _nftID */\n      dup6\n        /* \"Millow/contracts/Escrow.sol\":3198:3268  IERC721(nftAddress).transferFrom(address(this), buyer[_nftID], _nftID) */\n      mload(0x40)\n      dup5\n      0xffffffff\n      and\n      0xe0\n      shl\n      dup2\n      mstore\n      0x04\n      add\n      tag_124\n      swap4\n      swap3\n      swap2\n      swap1\n      tag_125\n      jump\t// in\n    tag_124:\n      0x00\n      mload(0x40)\n      dup1\n      dup4\n      sub\n      dup2\n      0x00\n      dup8\n      dup1\n      extcodesize\n      iszero\n      dup1\n      iszero\n      tag_126\n      jumpi\n      0x00\n      dup1\n      revert\n    tag_126:\n      pop\n      gas\n      call\n      iszero\n      dup1\n      iszero\n      tag_128\n      jumpi\n      returndatasize\n      0x00\n      dup1\n      returndatacopy\n      revert(0x00, returndatasize)\n    tag_128:\n      pop\n      pop\n      pop\n      pop\n        /* \"Millow/contracts/Escrow.sol\":2786:3276  {... */\n      pop\n        /* \"Millow/contracts/Escrow.sol\":2741:3276  function finalizeSale(uint256 _nftID) public {... */\n      pop\n      jump\t// out\n        /* \"Millow/contracts/Escrow.sol\":1071:1131  mapping(uint256 => mapping(address => bool)) public approval */\n    tag_79:\n      mstore(0x20, 0x09)\n      dup2\n      0x00\n      mstore\n      mstore(0x20, keccak256(0x00, 0x40))\n      dup1\n      0x00\n      mstore\n      keccak256(0x00, 0x40)\n      0x00\n      swap2\n      pop\n      swap2\n      pop\n      swap1\n      sload\n      swap1\n      0x0100\n      exp\n      swap1\n      div\n      0xff\n      and\n      dup2\n      jump\t// out\n        /* \"Millow/contracts/Escrow.sol\":325:346  address public lender */\n    tag_83:\n      0x03\n      0x00\n      swap1\n      sload\n      swap1\n      0x0100\n      exp\n      swap1\n      div\n      0xffffffffffffffffffffffffffffffffffffffff\n      and\n      dup2\n      jump\t// out\n        /* \"Millow/contracts/Escrow.sol\":3418:3681  function cancelSale(uint256 _nftID) public {... */\n    tag_88:\n        /* \"Millow/contracts/Escrow.sol\":3504:3509  false */\n      0x00\n        /* \"Millow/contracts/Escrow.sol\":3476:3509  inspectionPassed[_nftID] == false */\n      iszero\n      iszero\n        /* \"Millow/contracts/Escrow.sol\":3476:3492  inspectionPassed */\n      0x08\n        /* \"Millow/contracts/Escrow.sol\":3476:3500  inspectionPassed[_nftID] */\n      0x00\n        /* \"Millow/contracts/Escrow.sol\":3493:3499  _nftID */\n      dup4\n        /* \"Millow/contracts/Escrow.sol\":3476:3500  inspectionPassed[_nftID] */\n      dup2\n      mstore\n      0x20\n      add\n      swap1\n      dup2\n      mstore\n      0x20\n      add\n      0x00\n      keccak256\n      0x00\n      swap1\n      sload\n      swap1\n      0x0100\n      exp\n      swap1\n      div\n      0xff\n      and\n        /* \"Millow/contracts/Escrow.sol\":3476:3509  inspectionPassed[_nftID] == false */\n      iszero\n      iszero\n      sub\n        /* \"Millow/contracts/Escrow.sol\":3472:3672  if (inspectionPassed[_nftID] == false) {... */\n      tag_130\n      jumpi\n        /* \"Millow/contracts/Escrow.sol\":3534:3539  buyer */\n      0x07\n        /* \"Millow/contracts/Escrow.sol\":3534:3547  buyer[_nftID] */\n      0x00\n        /* \"Millow/contracts/Escrow.sol\":3540:3546  _nftID */\n      dup3\n        /* \"Millow/contracts/Escrow.sol\":3534:3547  buyer[_nftID] */\n      dup2\n      mstore\n      0x20\n      add\n      swap1\n      dup2\n      mstore\n      0x20\n      add\n      0x00\n      keccak256\n      0x00\n      swap1\n      sload\n      swap1\n      0x0100\n      exp\n      swap1\n      div\n      0xffffffffffffffffffffffffffffffffffffffff\n      and\n        /* \"Millow/contracts/Escrow.sol\":3526:3557  payable(buyer[_nftID]).transfer */\n      0xffffffffffffffffffffffffffffffffffffffff\n      and\n        /* \"Millow/contracts/Escrow.sol\":3526:3580  payable(buyer[_nftID]).transfer(address(this).balance) */\n      0x08fc\n        /* \"Millow/contracts/Escrow.sol\":3558:3579  address(this).balance */\n      selfbalance\n        /* \"Millow/contracts/Escrow.sol\":3526:3580  payable(buyer[_nftID]).transfer(address(this).balance) */\n      swap1\n      dup2\n      iszero\n      mul\n      swap1\n      mload(0x40)\n      0x00\n      mload(0x40)\n      dup1\n      dup4\n      sub\n      dup2\n      dup6\n      dup9\n      dup9\n      call\n      swap4\n      pop\n      pop\n      pop\n      pop\n      iszero\n      dup1\n      iszero\n      tag_132\n      jumpi\n      returndatasize\n      0x00\n      dup1\n      returndatacopy\n      revert(0x00, returndatasize)\n    tag_132:\n      pop\n        /* \"Millow/contracts/Escrow.sol\":3472:3672  if (inspectionPassed[_nftID] == false) {... */\n      jump(tag_133)\n    tag_130:\n        /* \"Millow/contracts/Escrow.sol\":3621:3627  seller */\n      0x01\n      0x00\n      swap1\n      sload\n      swap1\n      0x0100\n      exp\n      swap1\n      div\n      0xffffffffffffffffffffffffffffffffffffffff\n      and\n        /* \"Millow/contracts/Escrow.sol\":3613:3637  payable(seller).transfer */\n      0xffffffffffffffffffffffffffffffffffffffff\n      and\n        /* \"Millow/contracts/Escrow.sol\":3613:3660  payable(seller).transfer(address(this).balance) */\n      0x08fc\n        /* \"Millow/contracts/Escrow.sol\":3638:3659  address(this).balance */\n      selfbalance\n        /* \"Millow/contracts/Escrow.sol\":3613:3660  payable(seller).transfer(address(this).balance) */\n      swap1\n      dup2\n      iszero\n      mul\n      swap1\n      mload(0x40)\n      0x00\n      mload(0x40)\n      dup1\n      dup4\n      sub\n      dup2\n      dup6\n      dup9\n      dup9\n      call\n      swap4\n      pop\n      pop\n      pop\n      pop\n      iszero\n      dup1\n      iszero\n      tag_135\n      jumpi\n      returndatasize\n      0x00\n      dup1\n      returndatacopy\n      revert(0x00, returndatasize)\n    tag_135:\n      pop\n        /* \"Millow/contracts/Escrow.sol\":3472:3672  if (inspectionPassed[_nftID] == false) {... */\n    tag_133:\n        /* \"Millow/contracts/Escrow.sol\":3418:3681  function cancelSale(uint256 _nftID) public {... */\n      pop\n      jump\t// out\n        /* \"Millow/contracts/Escrow.sol\":1420:1937  function list(... */\n    tag_92:\n        /* \"Millow/contracts/Escrow.sol\":556:562  seller */\n      0x01\n      0x00\n      swap1\n      sload\n      swap1\n      0x0100\n      exp\n      swap1\n      div\n      0xffffffffffffffffffffffffffffffffffffffff\n      and\n        /* \"Millow/contracts/Escrow.sol\":542:562  msg.sender == seller */\n      0xffffffffffffffffffffffffffffffffffffffff\n      and\n        /* \"Millow/contracts/Escrow.sol\":542:552  msg.sender */\n      caller\n        /* \"Millow/contracts/Escrow.sol\":542:562  msg.sender == seller */\n      0xffffffffffffffffffffffffffffffffffffffff\n      and\n      eq\n        /* \"Millow/contracts/Escrow.sol\":534:599  require(msg.sender == seller, \"Only seller can call this method\") */\n      tag_137\n      jumpi\n      mload(0x40)\n      0x08c379a000000000000000000000000000000000000000000000000000000000\n      dup2\n      mstore\n      0x04\n      add\n      tag_138\n      swap1\n      tag_139\n      jump\t// in\n    tag_138:\n      mload(0x40)\n      dup1\n      swap2\n      sub\n      swap1\n      revert\n    tag_137:\n        /* \"Millow/contracts/Escrow.sol\":1663:1673  nftAddress */\n      0x00\n      dup1\n      sload\n      swap1\n      0x0100\n      exp\n      swap1\n      div\n      0xffffffffffffffffffffffffffffffffffffffff\n      and\n        /* \"Millow/contracts/Escrow.sol\":1655:1687  IERC721(nftAddress).transferFrom */\n      0xffffffffffffffffffffffffffffffffffffffff\n      and\n      0x23b872dd\n        /* \"Millow/contracts/Escrow.sol\":1688:1698  msg.sender */\n      caller\n        /* \"Millow/contracts/Escrow.sol\":1708:1712  this */\n      address\n        /* \"Millow/contracts/Escrow.sol\":1715:1721  _nftID */\n      dup8\n        /* \"Millow/contracts/Escrow.sol\":1655:1722  IERC721(nftAddress).transferFrom(msg.sender, address(this), _nftID) */\n      mload(0x40)\n      dup5\n      0xffffffff\n      and\n      0xe0\n      shl\n      dup2\n      mstore\n      0x04\n      add\n      tag_141\n      swap4\n      swap3\n      swap2\n      swap1\n      tag_125\n      jump\t// in\n    tag_141:\n      0x00\n      mload(0x40)\n      dup1\n      dup4\n      sub\n      dup2\n      0x00\n      dup8\n      dup1\n      extcodesize\n      iszero\n      dup1\n      iszero\n      tag_142\n      jumpi\n      0x00\n      dup1\n      revert\n    tag_142:\n      pop\n      gas\n      call\n      iszero\n      dup1\n      iszero\n      tag_144\n      jumpi\n      returndatasize\n      0x00\n      dup1\n      returndatacopy\n      revert(0x00, returndatasize)\n    tag_144:\n      pop\n      pop\n      pop\n      pop\n        /* \"Millow/contracts/Escrow.sol\":1754:1758  true */\n      0x01\n        /* \"Millow/contracts/Escrow.sol\":1735:1743  isListed */\n      0x04\n        /* \"Millow/contracts/Escrow.sol\":1735:1751  isListed[_nftID] */\n      0x00\n        /* \"Millow/contracts/Escrow.sol\":1744:1750  _nftID */\n      dup7\n        /* \"Millow/contracts/Escrow.sol\":1735:1751  isListed[_nftID] */\n      dup2\n      mstore\n      0x20\n      add\n      swap1\n      dup2\n      mstore\n      0x20\n      add\n      0x00\n      keccak256\n      0x00\n        /* \"Millow/contracts/Escrow.sol\":1735:1758  isListed[_nftID] = true */\n      0x0100\n      exp\n      dup2\n      sload\n      dup2\n      0xff\n      mul\n      not\n      and\n      swap1\n      dup4\n      iszero\n      iszero\n      mul\n      or\n      swap1\n      sstore\n      pop\n        /* \"Millow/contracts/Escrow.sol\":1793:1807  _purchasePrice */\n      dup2\n        /* \"Millow/contracts/Escrow.sol\":1769:1782  purchasePrice */\n      0x05\n        /* \"Millow/contracts/Escrow.sol\":1769:1790  purchasePrice[_nftID] */\n      0x00\n        /* \"Millow/contracts/Escrow.sol\":1783:1789  _nftID */\n      dup7\n        /* \"Millow/contracts/Escrow.sol\":1769:1790  purchasePrice[_nftID] */\n      dup2\n      mstore\n      0x20\n      add\n      swap1\n      dup2\n      mstore\n      0x20\n      add\n      0x00\n      keccak256\n        /* \"Millow/contracts/Escrow.sol\":1769:1807  purchasePrice[_nftID] = _purchasePrice */\n      dup2\n      swap1\n      sstore\n      pop\n        /* \"Millow/contracts/Escrow.sol\":1841:1854  _escrowAmount */\n      dup1\n        /* \"Millow/contracts/Escrow.sol\":1818:1830  escrowAmount */\n      0x06\n        /* \"Millow/contracts/Escrow.sol\":1818:1838  escrowAmount[_nftID] */\n      0x00\n        /* \"Millow/contracts/Escrow.sol\":1831:1837  _nftID */\n      dup7\n        /* \"Millow/contracts/Escrow.sol\":1818:1838  escrowAmount[_nftID] */\n      dup2\n      mstore\n      0x20\n      add\n      swap1\n      dup2\n      mstore\n      0x20\n      add\n      0x00\n      keccak256\n        /* \"Millow/contracts/Escrow.sol\":1818:1854  escrowAmount[_nftID] = _escrowAmount */\n      dup2\n      swap1\n      sstore\n      pop\n        /* \"Millow/contracts/Escrow.sol\":1923:1929  _buyer */\n      dup3\n        /* \"Millow/contracts/Escrow.sol\":1907:1912  buyer */\n      0x07\n        /* \"Millow/contracts/Escrow.sol\":1907:1920  buyer[_nftID] */\n      0x00\n        /* \"Millow/contracts/Escrow.sol\":1913:1919  _nftID */\n      dup7\n        /* \"Millow/contracts/Escrow.sol\":1907:1920  buyer[_nftID] */\n      dup2\n      mstore\n      0x20\n      add\n      swap1\n      dup2\n      mstore\n      0x20\n      add\n      0x00\n      keccak256\n      0x00\n        /* \"Millow/contracts/Escrow.sol\":1907:1929  buyer[_nftID] = _buyer */\n      0x0100\n      exp\n      dup2\n      sload\n      dup2\n      0xffffffffffffffffffffffffffffffffffffffff\n      mul\n      not\n      and\n      swap1\n      dup4\n      0xffffffffffffffffffffffffffffffffffffffff\n      and\n      mul\n      or\n      swap1\n      sstore\n      pop\n        /* \"Millow/contracts/Escrow.sol\":1420:1937  function list(... */\n      pop\n      pop\n      pop\n      pop\n      jump\t// out\n        /* \"Millow/contracts/Escrow.sol\":2000:2133  function depositEarnest(uint256 _nftID) public payable onlyBuyer(_nftID) {... */\n    tag_95:\n        /* \"Millow/contracts/Escrow.sol\":2065:2071  _nftID */\n      dup1\n        /* \"Millow/contracts/Escrow.sol\":423:428  buyer */\n      0x07\n        /* \"Millow/contracts/Escrow.sol\":423:436  buyer[_nftID] */\n      0x00\n        /* \"Millow/contracts/Escrow.sol\":429:435  _nftID */\n      dup3\n        /* \"Millow/contracts/Escrow.sol\":423:436  buyer[_nftID] */\n      dup2\n      mstore\n      0x20\n      add\n      swap1\n      dup2\n      mstore\n      0x20\n      add\n      0x00\n      keccak256\n      0x00\n      swap1\n      sload\n      swap1\n      0x0100\n      exp\n      swap1\n      div\n      0xffffffffffffffffffffffffffffffffffffffff\n      and\n        /* \"Millow/contracts/Escrow.sol\":409:436  msg.sender == buyer[_nftID] */\n      0xffffffffffffffffffffffffffffffffffffffff\n      and\n        /* \"Millow/contracts/Escrow.sol\":409:419  msg.sender */\n      caller\n        /* \"Millow/contracts/Escrow.sol\":409:436  msg.sender == buyer[_nftID] */\n      0xffffffffffffffffffffffffffffffffffffffff\n      and\n      eq\n        /* \"Millow/contracts/Escrow.sol\":401:472  require(msg.sender == buyer[_nftID], \"Only buyer can call this method\") */\n      tag_146\n      jumpi\n      mload(0x40)\n      0x08c379a000000000000000000000000000000000000000000000000000000000\n      dup2\n      mstore\n      0x04\n      add\n      tag_147\n      swap1\n      tag_148\n      jump\t// in\n    tag_147:\n      mload(0x40)\n      dup1\n      swap2\n      sub\n      swap1\n      revert\n    tag_146:\n        /* \"Millow/contracts/Escrow.sol\":2104:2116  escrowAmount */\n      0x06\n        /* \"Millow/contracts/Escrow.sol\":2104:2124  escrowAmount[_nftID] */\n      0x00\n        /* \"Millow/contracts/Escrow.sol\":2117:2123  _nftID */\n      dup4\n        /* \"Millow/contracts/Escrow.sol\":2104:2124  escrowAmount[_nftID] */\n      dup2\n      mstore\n      0x20\n      add\n      swap1\n      dup2\n      mstore\n      0x20\n      add\n      0x00\n      keccak256\n      sload\n        /* \"Millow/contracts/Escrow.sol\":2091:2100  msg.value */\n      callvalue\n        /* \"Millow/contracts/Escrow.sol\":2091:2124  msg.value >= escrowAmount[_nftID] */\n      lt\n      iszero\n        /* \"Millow/contracts/Escrow.sol\":2083:2125  require(msg.value >= escrowAmount[_nftID]) */\n      tag_150\n      jumpi\n      0x00\n      dup1\n      revert\n    tag_150:\n        /* \"Millow/contracts/Escrow.sol\":2000:2133  function depositEarnest(uint256 _nftID) public payable onlyBuyer(_nftID) {... */\n      pop\n      pop\n      jump\t// out\n        /* \"Millow/contracts/Escrow.sol\":294:318  address public inspector */\n    tag_98:\n      0x02\n      0x00\n      swap1\n      sload\n      swap1\n      0x0100\n      exp\n      swap1\n      div\n      0xffffffffffffffffffffffffffffffffffffffff\n      and\n      dup2\n      jump\t// out\n        /* \"Millow/contracts/Escrow.sol\":762:803  mapping (uint256 => bool) public isListed */\n    tag_103:\n      mstore(0x20, 0x04)\n      dup1\n      0x00\n      mstore\n      keccak256(0x00, 0x40)\n      0x00\n      swap2\n      pop\n      sload\n      swap1\n      0x0100\n      exp\n      swap1\n      div\n      0xff\n      and\n      dup2\n      jump\t// out\n        /* \"#utility.yul\":7:133   */\n    tag_151:\n        /* \"#utility.yul\":44:51   */\n      0x00\n        /* \"#utility.yul\":84:126   */\n      0xffffffffffffffffffffffffffffffffffffffff\n        /* \"#utility.yul\":77:82   */\n      dup3\n        /* \"#utility.yul\":73:127   */\n      and\n        /* \"#utility.yul\":62:127   */\n      swap1\n      pop\n        /* \"#utility.yul\":7:133   */\n      swap2\n      swap1\n      pop\n      jump\t// out\n        /* \"#utility.yul\":139:243   */\n    tag_152:\n        /* \"#utility.yul\":184:191   */\n      0x00\n        /* \"#utility.yul\":213:237   */\n      tag_182\n        /* \"#utility.yul\":231:236   */\n      dup3\n        /* \"#utility.yul\":213:237   */\n      tag_151\n      jump\t// in\n    tag_182:\n        /* \"#utility.yul\":202:237   */\n      swap1\n      pop\n        /* \"#utility.yul\":139:243   */\n      swap2\n      swap1\n      pop\n      jump\t// out\n        /* \"#utility.yul\":249:391   */\n    tag_153:\n        /* \"#utility.yul\":352:384   */\n      tag_184\n        /* \"#utility.yul\":378:383   */\n      dup2\n        /* \"#utility.yul\":352:384   */\n      tag_152\n      jump\t// in\n    tag_184:\n        /* \"#utility.yul\":347:350   */\n      dup3\n        /* \"#utility.yul\":340:385   */\n      mstore\n        /* \"#utility.yul\":249:391   */\n      pop\n      pop\n      jump\t// out\n        /* \"#utility.yul\":397:651   */\n    tag_29:\n        /* \"#utility.yul\":506:510   */\n      0x00\n        /* \"#utility.yul\":544:546   */\n      0x20\n        /* \"#utility.yul\":533:542   */\n      dup3\n        /* \"#utility.yul\":529:547   */\n      add\n        /* \"#utility.yul\":521:547   */\n      swap1\n      pop\n        /* \"#utility.yul\":557:644   */\n      tag_186\n        /* \"#utility.yul\":641:642   */\n      0x00\n        /* \"#utility.yul\":630:639   */\n      dup4\n        /* \"#utility.yul\":626:643   */\n      add\n        /* \"#utility.yul\":617:623   */\n      dup5\n        /* \"#utility.yul\":557:644   */\n      tag_153\n      jump\t// in\n    tag_186:\n        /* \"#utility.yul\":397:651   */\n      swap3\n      swap2\n      pop\n      pop\n      jump\t// out\n        /* \"#utility.yul\":657:734   */\n    tag_154:\n        /* \"#utility.yul\":694:701   */\n      0x00\n        /* \"#utility.yul\":723:728   */\n      dup2\n        /* \"#utility.yul\":712:728   */\n      swap1\n      pop\n        /* \"#utility.yul\":657:734   */\n      swap2\n      swap1\n      pop\n      jump\t// out\n        /* \"#utility.yul\":740:858   */\n    tag_155:\n        /* \"#utility.yul\":827:851   */\n      tag_189\n        /* \"#utility.yul\":845:850   */\n      dup2\n        /* \"#utility.yul\":827:851   */\n      tag_154\n      jump\t// in\n    tag_189:\n        /* \"#utility.yul\":822:825   */\n      dup3\n        /* \"#utility.yul\":815:852   */\n      mstore\n        /* \"#utility.yul\":740:858   */\n      pop\n      pop\n      jump\t// out\n        /* \"#utility.yul\":864:1086   */\n    tag_34:\n        /* \"#utility.yul\":957:961   */\n      0x00\n        /* \"#utility.yul\":995:997   */\n      0x20\n        /* \"#utility.yul\":984:993   */\n      dup3\n        /* \"#utility.yul\":980:998   */\n      add\n        /* \"#utility.yul\":972:998   */\n      swap1\n      pop\n        /* \"#utility.yul\":1008:1079   */\n      tag_191\n        /* \"#utility.yul\":1076:1077   */\n      0x00\n        /* \"#utility.yul\":1065:1074   */\n      dup4\n        /* \"#utility.yul\":1061:1078   */\n      add\n        /* \"#utility.yul\":1052:1058   */\n      dup5\n        /* \"#utility.yul\":1008:1079   */\n      tag_155\n      jump\t// in\n    tag_191:\n        /* \"#utility.yul\":864:1086   */\n      swap3\n      swap2\n      pop\n      pop\n      jump\t// out\n        /* \"#utility.yul\":1173:1290   */\n    tag_157:\n        /* \"#utility.yul\":1282:1283   */\n      0x00\n        /* \"#utility.yul\":1279:1280   */\n      dup1\n        /* \"#utility.yul\":1272:1284   */\n      revert\n        /* \"#utility.yul\":1419:1541   */\n    tag_159:\n        /* \"#utility.yul\":1492:1516   */\n      tag_196\n        /* \"#utility.yul\":1510:1515   */\n      dup2\n        /* \"#utility.yul\":1492:1516   */\n      tag_154\n      jump\t// in\n    tag_196:\n        /* \"#utility.yul\":1485:1490   */\n      dup2\n        /* \"#utility.yul\":1482:1517   */\n      eq\n        /* \"#utility.yul\":1472:1535   */\n      tag_197\n      jumpi\n        /* \"#utility.yul\":1531:1532   */\n      0x00\n        /* \"#utility.yul\":1528:1529   */\n      dup1\n        /* \"#utility.yul\":1521:1533   */\n      revert\n        /* \"#utility.yul\":1472:1535   */\n    tag_197:\n        /* \"#utility.yul\":1419:1541   */\n      pop\n      jump\t// out\n        /* \"#utility.yul\":1547:1686   */\n    tag_160:\n        /* \"#utility.yul\":1593:1598   */\n      0x00\n        /* \"#utility.yul\":1631:1637   */\n      dup2\n        /* \"#utility.yul\":1618:1638   */\n      calldataload\n        /* \"#utility.yul\":1609:1638   */\n      swap1\n      pop\n        /* \"#utility.yul\":1647:1680   */\n      tag_199\n        /* \"#utility.yul\":1674:1679   */\n      dup2\n        /* \"#utility.yul\":1647:1680   */\n      tag_159\n      jump\t// in\n    tag_199:\n        /* \"#utility.yul\":1547:1686   */\n      swap3\n      swap2\n      pop\n      pop\n      jump\t// out\n        /* \"#utility.yul\":1692:2021   */\n    tag_38:\n        /* \"#utility.yul\":1751:1757   */\n      0x00\n        /* \"#utility.yul\":1800:1802   */\n      0x20\n        /* \"#utility.yul\":1788:1797   */\n      dup3\n        /* \"#utility.yul\":1779:1786   */\n      dup5\n        /* \"#utility.yul\":1775:1798   */\n      sub\n        /* \"#utility.yul\":1771:1803   */\n      slt\n        /* \"#utility.yul\":1768:1887   */\n      iszero\n      tag_201\n      jumpi\n        /* \"#utility.yul\":1806:1885   */\n      tag_202\n      tag_157\n      jump\t// in\n    tag_202:\n        /* \"#utility.yul\":1768:1887   */\n    tag_201:\n        /* \"#utility.yul\":1926:1927   */\n      0x00\n        /* \"#utility.yul\":1951:2004   */\n      tag_203\n        /* \"#utility.yul\":1996:2003   */\n      dup5\n        /* \"#utility.yul\":1987:1993   */\n      dup3\n        /* \"#utility.yul\":1976:1985   */\n      dup6\n        /* \"#utility.yul\":1972:1994   */\n      add\n        /* \"#utility.yul\":1951:2004   */\n      tag_160\n      jump\t// in\n    tag_203:\n        /* \"#utility.yul\":1941:2004   */\n      swap2\n      pop\n        /* \"#utility.yul\":1897:2014   */\n      pop\n        /* \"#utility.yul\":1692:2021   */\n      swap3\n      swap2\n      pop\n      pop\n      jump\t// out\n        /* \"#utility.yul\":2027:2123   */\n    tag_161:\n        /* \"#utility.yul\":2064:2071   */\n      0x00\n        /* \"#utility.yul\":2093:2117   */\n      tag_205\n        /* \"#utility.yul\":2111:2116   */\n      dup3\n        /* \"#utility.yul\":2093:2117   */\n      tag_151\n      jump\t// in\n    tag_205:\n        /* \"#utility.yul\":2082:2117   */\n      swap1\n      pop\n        /* \"#utility.yul\":2027:2123   */\n      swap2\n      swap1\n      pop\n      jump\t// out\n        /* \"#utility.yul\":2129:2247   */\n    tag_162:\n        /* \"#utility.yul\":2216:2240   */\n      tag_207\n        /* \"#utility.yul\":2234:2239   */\n      dup2\n        /* \"#utility.yul\":2216:2240   */\n      tag_161\n      jump\t// in\n    tag_207:\n        /* \"#utility.yul\":2211:2214   */\n      dup3\n        /* \"#utility.yul\":2204:2241   */\n      mstore\n        /* \"#utility.yul\":2129:2247   */\n      pop\n      pop\n      jump\t// out\n        /* \"#utility.yul\":2253:2475   */\n    tag_45:\n        /* \"#utility.yul\":2346:2350   */\n      0x00\n        /* \"#utility.yul\":2384:2386   */\n      0x20\n        /* \"#utility.yul\":2373:2382   */\n      dup3\n        /* \"#utility.yul\":2369:2387   */\n      add\n        /* \"#utility.yul\":2361:2387   */\n      swap1\n      pop\n        /* \"#utility.yul\":2397:2468   */\n      tag_209\n        /* \"#utility.yul\":2465:2466   */\n      0x00\n        /* \"#utility.yul\":2454:2463   */\n      dup4\n        /* \"#utility.yul\":2450:2467   */\n      add\n        /* \"#utility.yul\":2441:2447   */\n      dup5\n        /* \"#utility.yul\":2397:2468   */\n      tag_162\n      jump\t// in\n    tag_209:\n        /* \"#utility.yul\":2253:2475   */\n      swap3\n      swap2\n      pop\n      pop\n      jump\t// out\n        /* \"#utility.yul\":2481:2571   */\n    tag_163:\n        /* \"#utility.yul\":2515:2522   */\n      0x00\n        /* \"#utility.yul\":2558:2563   */\n      dup2\n        /* \"#utility.yul\":2551:2564   */\n      iszero\n        /* \"#utility.yul\":2544:2565   */\n      iszero\n        /* \"#utility.yul\":2533:2565   */\n      swap1\n      pop\n        /* \"#utility.yul\":2481:2571   */\n      swap2\n      swap1\n      pop\n      jump\t// out\n        /* \"#utility.yul\":2577:2686   */\n    tag_164:\n        /* \"#utility.yul\":2658:2679   */\n      tag_212\n        /* \"#utility.yul\":2673:2678   */\n      dup2\n        /* \"#utility.yul\":2658:2679   */\n      tag_163\n      jump\t// in\n    tag_212:\n        /* \"#utility.yul\":2653:2656   */\n      dup3\n        /* \"#utility.yul\":2646:2680   */\n      mstore\n        /* \"#utility.yul\":2577:2686   */\n      pop\n      pop\n      jump\t// out\n        /* \"#utility.yul\":2692:2902   */\n    tag_60:\n        /* \"#utility.yul\":2779:2783   */\n      0x00\n        /* \"#utility.yul\":2817:2819   */\n      0x20\n        /* \"#utility.yul\":2806:2815   */\n      dup3\n        /* \"#utility.yul\":2802:2820   */\n      add\n        /* \"#utility.yul\":2794:2820   */\n      swap1\n      pop\n        /* \"#utility.yul\":2830:2895   */\n      tag_214\n        /* \"#utility.yul\":2892:2893   */\n      0x00\n        /* \"#utility.yul\":2881:2890   */\n      dup4\n        /* \"#utility.yul\":2877:2894   */\n      add\n        /* \"#utility.yul\":2868:2874   */\n      dup5\n        /* \"#utility.yul\":2830:2895   */\n      tag_164\n      jump\t// in\n    tag_214:\n        /* \"#utility.yul\":2692:2902   */\n      swap3\n      swap2\n      pop\n      pop\n      jump\t// out\n        /* \"#utility.yul\":2908:3024   */\n    tag_165:\n        /* \"#utility.yul\":2978:2999   */\n      tag_216\n        /* \"#utility.yul\":2993:2998   */\n      dup2\n        /* \"#utility.yul\":2978:2999   */\n      tag_163\n      jump\t// in\n    tag_216:\n        /* \"#utility.yul\":2971:2976   */\n      dup2\n        /* \"#utility.yul\":2968:3000   */\n      eq\n        /* \"#utility.yul\":2958:3018   */\n      tag_217\n      jumpi\n        /* \"#utility.yul\":3014:3015   */\n      0x00\n        /* \"#utility.yul\":3011:3012   */\n      dup1\n        /* \"#utility.yul\":3004:3016   */\n      revert\n        /* \"#utility.yul\":2958:3018   */\n    tag_217:\n        /* \"#utility.yul\":2908:3024   */\n      pop\n      jump\t// out\n        /* \"#utility.yul\":3030:3163   */\n    tag_166:\n        /* \"#utility.yul\":3073:3078   */\n      0x00\n        /* \"#utility.yul\":3111:3117   */\n      dup2\n        /* \"#utility.yul\":3098:3118   */\n      calldataload\n        /* \"#utility.yul\":3089:3118   */\n      swap1\n      pop\n        /* \"#utility.yul\":3127:3157   */\n      tag_219\n        /* \"#utility.yul\":3151:3156   */\n      dup2\n        /* \"#utility.yul\":3127:3157   */\n      tag_165\n      jump\t// in\n    tag_219:\n        /* \"#utility.yul\":3030:3163   */\n      swap3\n      swap2\n      pop\n      pop\n      jump\t// out\n        /* \"#utility.yul\":3169:3637   */\n    tag_69:\n        /* \"#utility.yul\":3234:3240   */\n      0x00\n        /* \"#utility.yul\":3242:3248   */\n      dup1\n        /* \"#utility.yul\":3291:3293   */\n      0x40\n        /* \"#utility.yul\":3279:3288   */\n      dup4\n        /* \"#utility.yul\":3270:3277   */\n      dup6\n        /* \"#utility.yul\":3266:3289   */\n      sub\n        /* \"#utility.yul\":3262:3294   */\n      slt\n        /* \"#utility.yul\":3259:3378   */\n      iszero\n      tag_221\n      jumpi\n        /* \"#utility.yul\":3297:3376   */\n      tag_222\n      tag_157\n      jump\t// in\n    tag_222:\n        /* \"#utility.yul\":3259:3378   */\n    tag_221:\n        /* \"#utility.yul\":3417:3418   */\n      0x00\n        /* \"#utility.yul\":3442:3495   */\n      tag_223\n        /* \"#utility.yul\":3487:3494   */\n      dup6\n        /* \"#utility.yul\":3478:3484   */\n      dup3\n        /* \"#utility.yul\":3467:3476   */\n      dup7\n        /* \"#utility.yul\":3463:3485   */\n      add\n        /* \"#utility.yul\":3442:3495   */\n      tag_160\n      jump\t// in\n    tag_223:\n        /* \"#utility.yul\":3432:3495   */\n      swap3\n      pop\n        /* \"#utility.yul\":3388:3505   */\n      pop\n        /* \"#utility.yul\":3544:3546   */\n      0x20\n        /* \"#utility.yul\":3570:3620   */\n      tag_224\n        /* \"#utility.yul\":3612:3619   */\n      dup6\n        /* \"#utility.yul\":3603:3609   */\n      dup3\n        /* \"#utility.yul\":3592:3601   */\n      dup7\n        /* \"#utility.yul\":3588:3610   */\n      add\n        /* \"#utility.yul\":3570:3620   */\n      tag_166\n      jump\t// in\n    tag_224:\n        /* \"#utility.yul\":3560:3620   */\n      swap2\n      pop\n        /* \"#utility.yul\":3515:3630   */\n      pop\n        /* \"#utility.yul\":3169:3637   */\n      swap3\n      pop\n      swap3\n      swap1\n      pop\n      jump\t// out\n        /* \"#utility.yul\":3643:3765   */\n    tag_167:\n        /* \"#utility.yul\":3716:3740   */\n      tag_226\n        /* \"#utility.yul\":3734:3739   */\n      dup2\n        /* \"#utility.yul\":3716:3740   */\n      tag_161\n      jump\t// in\n    tag_226:\n        /* \"#utility.yul\":3709:3714   */\n      dup2\n        /* \"#utility.yul\":3706:3741   */\n      eq\n        /* \"#utility.yul\":3696:3759   */\n      tag_227\n      jumpi\n        /* \"#utility.yul\":3755:3756   */\n      0x00\n        /* \"#utility.yul\":3752:3753   */\n      dup1\n        /* \"#utility.yul\":3745:3757   */\n      revert\n        /* \"#utility.yul\":3696:3759   */\n    tag_227:\n        /* \"#utility.yul\":3643:3765   */\n      pop\n      jump\t// out\n        /* \"#utility.yul\":3771:3910   */\n    tag_168:\n        /* \"#utility.yul\":3817:3822   */\n      0x00\n        /* \"#utility.yul\":3855:3861   */\n      dup2\n        /* \"#utility.yul\":3842:3862   */\n      calldataload\n        /* \"#utility.yul\":3833:3862   */\n      swap1\n      pop\n        /* \"#utility.yul\":3871:3904   */\n      tag_229\n        /* \"#utility.yul\":3898:3903   */\n      dup2\n        /* \"#utility.yul\":3871:3904   */\n      tag_167\n      jump\t// in\n    tag_229:\n        /* \"#utility.yul\":3771:3910   */\n      swap3\n      swap2\n      pop\n      pop\n      jump\t// out\n        /* \"#utility.yul\":3916:4390   */\n    tag_78:\n        /* \"#utility.yul\":3984:3990   */\n      0x00\n        /* \"#utility.yul\":3992:3998   */\n      dup1\n        /* \"#utility.yul\":4041:4043   */\n      0x40\n        /* \"#utility.yul\":4029:4038   */\n      dup4\n        /* \"#utility.yul\":4020:4027   */\n      dup6\n        /* \"#utility.yul\":4016:4039   */\n      sub\n        /* \"#utility.yul\":4012:4044   */\n      slt\n        /* \"#utility.yul\":4009:4128   */\n      iszero\n      tag_231\n      jumpi\n        /* \"#utility.yul\":4047:4126   */\n      tag_232\n      tag_157\n      jump\t// in\n    tag_232:\n        /* \"#utility.yul\":4009:4128   */\n    tag_231:\n        /* \"#utility.yul\":4167:4168   */\n      0x00\n        /* \"#utility.yul\":4192:4245   */\n      tag_233\n        /* \"#utility.yul\":4237:4244   */\n      dup6\n        /* \"#utility.yul\":4228:4234   */\n      dup3\n        /* \"#utility.yul\":4217:4226   */\n      dup7\n        /* \"#utility.yul\":4213:4235   */\n      add\n        /* \"#utility.yul\":4192:4245   */\n      tag_160\n      jump\t// in\n    tag_233:\n        /* \"#utility.yul\":4182:4245   */\n      swap3\n      pop\n        /* \"#utility.yul\":4138:4255   */\n      pop\n        /* \"#utility.yul\":4294:4296   */\n      0x20\n        /* \"#utility.yul\":4320:4373   */\n      tag_234\n        /* \"#utility.yul\":4365:4372   */\n      dup6\n        /* \"#utility.yul\":4356:4362   */\n      dup3\n        /* \"#utility.yul\":4345:4354   */\n      dup7\n        /* \"#utility.yul\":4341:4363   */\n      add\n        /* \"#utility.yul\":4320:4373   */\n      tag_168\n      jump\t// in\n    tag_234:\n        /* \"#utility.yul\":4310:4373   */\n      swap2\n      pop\n        /* \"#utility.yul\":4265:4383   */\n      pop\n        /* \"#utility.yul\":3916:4390   */\n      swap3\n      pop\n      swap3\n      swap1\n      pop\n      jump\t// out\n        /* \"#utility.yul\":4396:5161   */\n    tag_91:\n        /* \"#utility.yul\":4482:4488   */\n      0x00\n        /* \"#utility.yul\":4490:4496   */\n      dup1\n        /* \"#utility.yul\":4498:4504   */\n      0x00\n        /* \"#utility.yul\":4506:4512   */\n      dup1\n        /* \"#utility.yul\":4555:4558   */\n      0x80\n        /* \"#utility.yul\":4543:4552   */\n      dup6\n        /* \"#utility.yul\":4534:4541   */\n      dup8\n        /* \"#utility.yul\":4530:4553   */\n      sub\n        /* \"#utility.yul\":4526:4559   */\n      slt\n        /* \"#utility.yul\":4523:4643   */\n      iszero\n      tag_236\n      jumpi\n        /* \"#utility.yul\":4562:4641   */\n      tag_237\n      tag_157\n      jump\t// in\n    tag_237:\n        /* \"#utility.yul\":4523:4643   */\n    tag_236:\n        /* \"#utility.yul\":4682:4683   */\n      0x00\n        /* \"#utility.yul\":4707:4760   */\n      tag_238\n        /* \"#utility.yul\":4752:4759   */\n      dup8\n        /* \"#utility.yul\":4743:4749   */\n      dup3\n        /* \"#utility.yul\":4732:4741   */\n      dup9\n        /* \"#utility.yul\":4728:4750   */\n      add\n        /* \"#utility.yul\":4707:4760   */\n      tag_160\n      jump\t// in\n    tag_238:\n        /* \"#utility.yul\":4697:4760   */\n      swap5\n      pop\n        /* \"#utility.yul\":4653:4770   */\n      pop\n        /* \"#utility.yul\":4809:4811   */\n      0x20\n        /* \"#utility.yul\":4835:4888   */\n      tag_239\n        /* \"#utility.yul\":4880:4887   */\n      dup8\n        /* \"#utility.yul\":4871:4877   */\n      dup3\n        /* \"#utility.yul\":4860:4869   */\n      dup9\n        /* \"#utility.yul\":4856:4878   */\n      add\n        /* \"#utility.yul\":4835:4888   */\n      tag_168\n      jump\t// in\n    tag_239:\n        /* \"#utility.yul\":4825:4888   */\n      swap4\n      pop\n        /* \"#utility.yul\":4780:4898   */\n      pop\n        /* \"#utility.yul\":4937:4939   */\n      0x40\n        /* \"#utility.yul\":4963:5016   */\n      tag_240\n        /* \"#utility.yul\":5008:5015   */\n      dup8\n        /* \"#utility.yul\":4999:5005   */\n      dup3\n        /* \"#utility.yul\":4988:4997   */\n      dup9\n        /* \"#utility.yul\":4984:5006   */\n      add\n        /* \"#utility.yul\":4963:5016   */\n      tag_160\n      jump\t// in\n    tag_240:\n        /* \"#utility.yul\":4953:5016   */\n      swap3\n      pop\n        /* \"#utility.yul\":4908:5026   */\n      pop\n        /* \"#utility.yul\":5065:5067   */\n      0x60\n        /* \"#utility.yul\":5091:5144   */\n      tag_241\n        /* \"#utility.yul\":5136:5143   */\n      dup8\n        /* \"#utility.yul\":5127:5133   */\n      dup3\n        /* \"#utility.yul\":5116:5125   */\n      dup9\n        /* \"#utility.yul\":5112:5134   */\n      add\n        /* \"#utility.yul\":5091:5144   */\n      tag_160\n      jump\t// in\n    tag_241:\n        /* \"#utility.yul\":5081:5144   */\n      swap2\n      pop\n        /* \"#utility.yul\":5036:5154   */\n      pop\n        /* \"#utility.yul\":4396:5161   */\n      swap3\n      swap6\n      swap2\n      swap5\n      pop\n      swap3\n      pop\n      jump\t// out\n        /* \"#utility.yul\":5167:5336   */\n    tag_169:\n        /* \"#utility.yul\":5251:5262   */\n      0x00\n        /* \"#utility.yul\":5285:5291   */\n      dup3\n        /* \"#utility.yul\":5280:5283   */\n      dup3\n        /* \"#utility.yul\":5273:5292   */\n      mstore\n        /* \"#utility.yul\":5325:5329   */\n      0x20\n        /* \"#utility.yul\":5320:5323   */\n      dup3\n        /* \"#utility.yul\":5316:5330   */\n      add\n        /* \"#utility.yul\":5301:5330   */\n      swap1\n      pop\n        /* \"#utility.yul\":5167:5336   */\n      swap3\n      swap2\n      pop\n      pop\n      jump\t// out\n        /* \"#utility.yul\":5342:5564   */\n    tag_170:\n        /* \"#utility.yul\":5482:5516   */\n      0x4f6e6c7920696e73706563746f722063616e2063616c6c2074686973206d6574\n        /* \"#utility.yul\":5478:5479   */\n      0x00\n        /* \"#utility.yul\":5470:5476   */\n      dup3\n        /* \"#utility.yul\":5466:5480   */\n      add\n        /* \"#utility.yul\":5459:5517   */\n      mstore\n        /* \"#utility.yul\":5551:5556   */\n      0x686f640000000000000000000000000000000000000000000000000000000000\n        /* \"#utility.yul\":5546:5548   */\n      0x20\n        /* \"#utility.yul\":5538:5544   */\n      dup3\n        /* \"#utility.yul\":5534:5549   */\n      add\n        /* \"#utility.yul\":5527:5557   */\n      mstore\n        /* \"#utility.yul\":5342:5564   */\n      pop\n      jump\t// out\n        /* \"#utility.yul\":5570:5936   */\n    tag_171:\n        /* \"#utility.yul\":5712:5715   */\n      0x00\n        /* \"#utility.yul\":5733:5800   */\n      tag_245\n        /* \"#utility.yul\":5797:5799   */\n      0x23\n        /* \"#utility.yul\":5792:5795   */\n      dup4\n        /* \"#utility.yul\":5733:5800   */\n      tag_169\n      jump\t// in\n    tag_245:\n        /* \"#utility.yul\":5726:5800   */\n      swap2\n      pop\n        /* \"#utility.yul\":5809:5902   */\n      tag_246\n        /* \"#utility.yul\":5898:5901   */\n      dup3\n        /* \"#utility.yul\":5809:5902   */\n      tag_170\n      jump\t// in\n    tag_246:\n        /* \"#utility.yul\":5927:5929   */\n      0x40\n        /* \"#utility.yul\":5922:5925   */\n      dup3\n        /* \"#utility.yul\":5918:5930   */\n      add\n        /* \"#utility.yul\":5911:5930   */\n      swap1\n      pop\n        /* \"#utility.yul\":5570:5936   */\n      swap2\n      swap1\n      pop\n      jump\t// out\n        /* \"#utility.yul\":5942:6361   */\n    tag_110:\n        /* \"#utility.yul\":6108:6112   */\n      0x00\n        /* \"#utility.yul\":6146:6148   */\n      0x20\n        /* \"#utility.yul\":6135:6144   */\n      dup3\n        /* \"#utility.yul\":6131:6149   */\n      add\n        /* \"#utility.yul\":6123:6149   */\n      swap1\n      pop\n        /* \"#utility.yul\":6195:6204   */\n      dup2\n        /* \"#utility.yul\":6189:6193   */\n      dup2\n        /* \"#utility.yul\":6185:6205   */\n      sub\n        /* \"#utility.yul\":6181:6182   */\n      0x00\n        /* \"#utility.yul\":6170:6179   */\n      dup4\n        /* \"#utility.yul\":6166:6183   */\n      add\n        /* \"#utility.yul\":6159:6206   */\n      mstore\n        /* \"#utility.yul\":6223:6354   */\n      tag_248\n        /* \"#utility.yul\":6349:6353   */\n      dup2\n        /* \"#utility.yul\":6223:6354   */\n      tag_171\n      jump\t// in\n    tag_248:\n        /* \"#utility.yul\":6215:6354   */\n      swap1\n      pop\n        /* \"#utility.yul\":5942:6361   */\n      swap2\n      swap1\n      pop\n      jump\t// out\n        /* \"#utility.yul\":6367:6514   */\n    tag_172:\n        /* \"#utility.yul\":6468:6479   */\n      0x00\n        /* \"#utility.yul\":6505:6508   */\n      dup2\n        /* \"#utility.yul\":6490:6508   */\n      swap1\n      pop\n        /* \"#utility.yul\":6367:6514   */\n      swap3\n      swap2\n      pop\n      pop\n      jump\t// out\n        /* \"#utility.yul\":6520:6634   */\n    tag_173:\n      pop\n      jump\t// out\n        /* \"#utility.yul\":6640:7038   */\n    tag_174:\n        /* \"#utility.yul\":6799:6802   */\n      0x00\n        /* \"#utility.yul\":6820:6903   */\n      tag_252\n        /* \"#utility.yul\":6901:6902   */\n      0x00\n        /* \"#utility.yul\":6896:6899   */\n      dup4\n        /* \"#utility.yul\":6820:6903   */\n      tag_172\n      jump\t// in\n    tag_252:\n        /* \"#utility.yul\":6813:6903   */\n      swap2\n      pop\n        /* \"#utility.yul\":6912:7005   */\n      tag_253\n        /* \"#utility.yul\":7001:7004   */\n      dup3\n        /* \"#utility.yul\":6912:7005   */\n      tag_173\n      jump\t// in\n    tag_253:\n        /* \"#utility.yul\":7030:7031   */\n      0x00\n        /* \"#utility.yul\":7025:7028   */\n      dup3\n        /* \"#utility.yul\":7021:7032   */\n      add\n        /* \"#utility.yul\":7014:7032   */\n      swap1\n      pop\n        /* \"#utility.yul\":6640:7038   */\n      swap2\n      swap1\n      pop\n      jump\t// out\n        /* \"#utility.yul\":7044:7423   */\n    tag_119:\n        /* \"#utility.yul\":7228:7231   */\n      0x00\n        /* \"#utility.yul\":7250:7397   */\n      tag_255\n        /* \"#utility.yul\":7393:7396   */\n      dup3\n        /* \"#utility.yul\":7250:7397   */\n      tag_174\n      jump\t// in\n    tag_255:\n        /* \"#utility.yul\":7243:7397   */\n      swap2\n      pop\n        /* \"#utility.yul\":7414:7417   */\n      dup2\n        /* \"#utility.yul\":7407:7417   */\n      swap1\n      pop\n        /* \"#utility.yul\":7044:7423   */\n      swap2\n      swap1\n      pop\n      jump\t// out\n        /* \"#utility.yul\":7429:7871   */\n    tag_125:\n        /* \"#utility.yul\":7578:7582   */\n      0x00\n        /* \"#utility.yul\":7616:7618   */\n      0x60\n        /* \"#utility.yul\":7605:7614   */\n      dup3\n        /* \"#utility.yul\":7601:7619   */\n      add\n        /* \"#utility.yul\":7593:7619   */\n      swap1\n      pop\n        /* \"#utility.yul\":7629:7700   */\n      tag_257\n        /* \"#utility.yul\":7697:7698   */\n      0x00\n        /* \"#utility.yul\":7686:7695   */\n      dup4\n        /* \"#utility.yul\":7682:7699   */\n      add\n        /* \"#utility.yul\":7673:7679   */\n      dup7\n        /* \"#utility.yul\":7629:7700   */\n      tag_162\n      jump\t// in\n    tag_257:\n        /* \"#utility.yul\":7710:7782   */\n      tag_258\n        /* \"#utility.yul\":7778:7780   */\n      0x20\n        /* \"#utility.yul\":7767:7776   */\n      dup4\n        /* \"#utility.yul\":7763:7781   */\n      add\n        /* \"#utility.yul\":7754:7760   */\n      dup6\n        /* \"#utility.yul\":7710:7782   */\n      tag_162\n      jump\t// in\n    tag_258:\n        /* \"#utility.yul\":7792:7864   */\n      tag_259\n        /* \"#utility.yul\":7860:7862   */\n      0x40\n        /* \"#utility.yul\":7849:7858   */\n      dup4\n        /* \"#utility.yul\":7845:7863   */\n      add\n        /* \"#utility.yul\":7836:7842   */\n      dup5\n        /* \"#utility.yul\":7792:7864   */\n      tag_155\n      jump\t// in\n    tag_259:\n        /* \"#utility.yul\":7429:7871   */\n      swap5\n      swap4\n      pop\n      pop\n      pop\n      pop\n      jump\t// out\n        /* \"#utility.yul\":7877:8059   */\n    tag_175:\n        /* \"#utility.yul\":8017:8051   */\n      0x4f6e6c792073656c6c65722063616e2063616c6c2074686973206d6574686f64\n        /* \"#utility.yul\":8013:8014   */\n      0x00\n        /* \"#utility.yul\":8005:8011   */\n      dup3\n        /* \"#utility.yul\":8001:8015   */\n      add\n        /* \"#utility.yul\":7994:8052   */\n      mstore\n        /* \"#utility.yul\":7877:8059   */\n      pop\n      jump\t// out\n        /* \"#utility.yul\":8065:8431   */\n    tag_176:\n        /* \"#utility.yul\":8207:8210   */\n      0x00\n        /* \"#utility.yul\":8228:8295   */\n      tag_262\n        /* \"#utility.yul\":8292:8294   */\n      0x20\n        /* \"#utility.yul\":8287:8290   */\n      dup4\n        /* \"#utility.yul\":8228:8295   */\n      tag_169\n      jump\t// in\n    tag_262:\n        /* \"#utility.yul\":8221:8295   */\n      swap2\n      pop\n        /* \"#utility.yul\":8304:8397   */\n      tag_263\n        /* \"#utility.yul\":8393:8396   */\n      dup3\n        /* \"#utility.yul\":8304:8397   */\n      tag_175\n      jump\t// in\n    tag_263:\n        /* \"#utility.yul\":8422:8424   */\n      0x20\n        /* \"#utility.yul\":8417:8420   */\n      dup3\n        /* \"#utility.yul\":8413:8425   */\n      add\n        /* \"#utility.yul\":8406:8425   */\n      swap1\n      pop\n        /* \"#utility.yul\":8065:8431   */\n      swap2\n      swap1\n      pop\n      jump\t// out\n        /* \"#utility.yul\":8437:8856   */\n    tag_139:\n        /* \"#utility.yul\":8603:8607   */\n      0x00\n        /* \"#utility.yul\":8641:8643   */\n      0x20\n        /* \"#utility.yul\":8630:8639   */\n      dup3\n        /* \"#utility.yul\":8626:8644   */\n      add\n        /* \"#utility.yul\":8618:8644   */\n      swap1\n      pop\n        /* \"#utility.yul\":8690:8699   */\n      dup2\n        /* \"#utility.yul\":8684:8688   */\n      dup2\n        /* \"#utility.yul\":8680:8700   */\n      sub\n        /* \"#utility.yul\":8676:8677   */\n      0x00\n        /* \"#utility.yul\":8665:8674   */\n      dup4\n        /* \"#utility.yul\":8661:8678   */\n      add\n        /* \"#utility.yul\":8654:8701   */\n      mstore\n        /* \"#utility.yul\":8718:8849   */\n      tag_265\n        /* \"#utility.yul\":8844:8848   */\n      dup2\n        /* \"#utility.yul\":8718:8849   */\n      tag_176\n      jump\t// in\n    tag_265:\n        /* \"#utility.yul\":8710:8849   */\n      swap1\n      pop\n        /* \"#utility.yul\":8437:8856   */\n      swap2\n      swap1\n      pop\n      jump\t// out\n        /* \"#utility.yul\":8862:9043   */\n    tag_177:\n        /* \"#utility.yul\":9002:9035   */\n      0x4f6e6c792062757965722063616e2063616c6c2074686973206d6574686f6400\n        /* \"#utility.yul\":8998:8999   */\n      0x00\n        /* \"#utility.yul\":8990:8996   */\n      dup3\n        /* \"#utility.yul\":8986:9000   */\n      add\n        /* \"#utility.yul\":8979:9036   */\n      mstore\n        /* \"#utility.yul\":8862:9043   */\n      pop\n      jump\t// out\n        /* \"#utility.yul\":9049:9415   */\n    tag_178:\n        /* \"#utility.yul\":9191:9194   */\n      0x00\n        /* \"#utility.yul\":9212:9279   */\n      tag_268\n        /* \"#utility.yul\":9276:9278   */\n      0x1f\n        /* \"#utility.yul\":9271:9274   */\n      dup4\n        /* \"#utility.yul\":9212:9279   */\n      tag_169\n      jump\t// in\n    tag_268:\n        /* \"#utility.yul\":9205:9279   */\n      swap2\n      pop\n        /* \"#utility.yul\":9288:9381   */\n      tag_269\n        /* \"#utility.yul\":9377:9380   */\n      dup3\n        /* \"#utility.yul\":9288:9381   */\n      tag_177\n      jump\t// in\n    tag_269:\n        /* \"#utility.yul\":9406:9408   */\n      0x20\n        /* \"#utility.yul\":9401:9404   */\n      dup3\n        /* \"#utility.yul\":9397:9409   */\n      add\n        /* \"#utility.yul\":9390:9409   */\n      swap1\n      pop\n        /* \"#utility.yul\":9049:9415   */\n      swap2\n      swap1\n      pop\n      jump\t// out\n        /* \"#utility.yul\":9421:9840   */\n    tag_148:\n        /* \"#utility.yul\":9587:9591   */\n      0x00\n        /* \"#utility.yul\":9625:9627   */\n      0x20\n        /* \"#utility.yul\":9614:9623   */\n      dup3\n        /* \"#utility.yul\":9610:9628   */\n      add\n        /* \"#utility.yul\":9602:9628   */\n      swap1\n      pop\n        /* \"#utility.yul\":9674:9683   */\n      dup2\n        /* \"#utility.yul\":9668:9672   */\n      dup2\n        /* \"#utility.yul\":9664:9684   */\n      sub\n        /* \"#utility.yul\":9660:9661   */\n      0x00\n        /* \"#utility.yul\":9649:9658   */\n      dup4\n        /* \"#utility.yul\":9645:9662   */\n      add\n        /* \"#utility.yul\":9638:9685   */\n      mstore\n        /* \"#utility.yul\":9702:9833   */\n      tag_271\n        /* \"#utility.yul\":9828:9832   */\n      dup2\n        /* \"#utility.yul\":9702:9833   */\n      tag_178\n      jump\t// in\n    tag_271:\n        /* \"#utility.yul\":9694:9833   */\n      swap1\n      pop\n        /* \"#utility.yul\":9421:9840   */\n      swap2\n      swap1\n      pop\n      jump\t// out\n\n    auxdata: 0xa264697066735822122068a5adcf149362fc01d01a38481ea58840a3a721ad1198c42758700918b8539264736f6c63430008160033\n}\n",
				"bytecode": {
					"linkReferences": {},
					"object": "608060405234801562000010575f80fd5b5060405162001471380380620014718339818101604052810190620000369190620001e6565b835f806101000a81548173ffffffffffffffffffffffffffffffffffffffff021916908373ffffffffffffffffffffffffffffffffffffffff1602179055508260015f6101000a81548173ffffffffffffffffffffffffffffffffffffffff021916908373ffffffffffffffffffffffffffffffffffffffff1602179055508160025f6101000a81548173ffffffffffffffffffffffffffffffffffffffff021916908373ffffffffffffffffffffffffffffffffffffffff1602179055508060035f6101000a81548173ffffffffffffffffffffffffffffffffffffffff021916908373ffffffffffffffffffffffffffffffffffffffff1602179055505050505062000255565b5f80fd5b5f73ffffffffffffffffffffffffffffffffffffffff82169050919050565b5f6200016e8262000143565b9050919050565b620001808162000162565b81146200018b575f80fd5b50565b5f815190506200019e8162000175565b92915050565b5f620001b08262000143565b9050919050565b620001c281620001a4565b8114620001cd575f80fd5b50565b5f81519050620001e081620001b7565b92915050565b5f805f80608085870312156200020157620002006200013f565b5b5f62000210878288016200018e565b94505060206200022387828801620001d0565b935050604062000236878288016200018e565b925050606062000249878288016200018e565b91505092959194509250565b61120e80620002635f395ff3fe608060405260043610610101575f3560e01c80639d0e5fd611610094578063bd94b00511610063578063bd94b00514610358578063c9f0ec7e14610380578063e740f7701461039c578063ed2cee9e146103b8578063fcce4883146103e257610108565b80639d0e5fd6146102a2578063aa929380146102ca578063b848de35146102f2578063bcead63e1461032e57610108565b80635bf8633a116100d05780635bf8633a146101c45780635d19e56c146101ee5780635eed5fff1461022a57806377fbc4ae1461026657610108565b806308551a531461010c57806312065fe01461013657806314a72feb146101605780634dd4acaf1461018857610108565b3661010857005b5f80fd5b348015610117575f80fd5b5061012061041e565b60405161012d9190610db1565b60405180910390f35b348015610141575f80fd5b5061014a610443565b6040516101579190610de2565b60405180910390f35b34801561016b575f80fd5b5061018660048036038101906101819190610e29565b61044a565b005b348015610193575f80fd5b506101ae60048036038101906101a99190610e29565b6104b1565b6040516101bb9190610e74565b60405180910390f35b3480156101cf575f80fd5b506101d86104e1565b6040516101e59190610e74565b60405180910390f35b3480156101f9575f80fd5b50610214600480360381019061020f9190610e29565b610504565b6040516102219190610de2565b60405180910390f35b348015610235575f80fd5b50610250600480360381019061024b9190610e29565b610519565b60405161025d9190610ea7565b60405180910390f35b348015610271575f80fd5b5061028c60048036038101906102879190610e29565b610536565b6040516102999190610de2565b60405180910390f35b3480156102ad575f80fd5b506102c860048036038101906102c39190610eea565b61054b565b005b3480156102d5575f80fd5b506102f060048036038101906102eb9190610e29565b610606565b005b3480156102fd575f80fd5b5061031860048036038101906103139190610f52565b610955565b6040516103259190610ea7565b60405180910390f35b348015610339575f80fd5b5061034261097f565b60405161034f9190610e74565b60405180910390f35b348015610363575f80fd5b5061037e60048036038101906103799190610e29565b6109a4565b005b61039a60048036038101906103959190610f90565b610aae565b005b6103b660048036038101906103b19190610e29565b610c70565b005b3480156103c3575f80fd5b506103cc610d30565b6040516103d99190610e74565b60405180910390f35b3480156103ed575f80fd5b5061040860048036038101906104039190610e29565b610d55565b6040516104159190610ea7565b60405180910390f35b60015f9054906101000a900473ffffffffffffffffffffffffffffffffffffffff1681565b5f47905090565b600160095f8381526020019081526020015f205f3373ffffffffffffffffffffffffffffffffffffffff1673ffffffffffffffffffffffffffffffffffffffff1681526020019081526020015f205f6101000a81548160ff02191690831515021790555050565b6007602052805f5260405f205f915054906101000a900473ffffffffffffffffffffffffffffffffffffffff1681565b5f8054906101000a900473ffffffffffffffffffffffffffffffffffffffff1681565b6006602052805f5260405f205f915090505481565b6008602052805f5260405f205f915054906101000a900460ff1681565b6005602052805f5260405f205f915090505481565b60025f9054906101000a900473ffffffffffffffffffffffffffffffffffffffff1673ffffffffffffffffffffffffffffffffffffffff163373ffffffffffffffffffffffffffffffffffffffff16146105da576040517f08c379a00000000000000000000000000000000000000000000000000000000081526004016105d190611074565b60405180910390fd5b8060085f8481526020019081526020015f205f6101000a81548160ff0219169083151502179055505050565b60085f8281526020019081526020015f205f9054906101000a900460ff1661062c575f80fd5b60095f8281526020019081526020015f205f60075f8481526020019081526020015f205f9054906101000a900473ffffffffffffffffffffffffffffffffffffffff1673ffffffffffffffffffffffffffffffffffffffff1673ffffffffffffffffffffffffffffffffffffffff1681526020019081526020015f205f9054906101000a900460ff166106bd575f80fd5b60095f8281526020019081526020015f205f60015f9054906101000a900473ffffffffffffffffffffffffffffffffffffffff1673ffffffffffffffffffffffffffffffffffffffff1673ffffffffffffffffffffffffffffffffffffffff1681526020019081526020015f205f9054906101000a900460ff1661073f575f80fd5b60095f8281526020019081526020015f205f60035f9054906101000a900473ffffffffffffffffffffffffffffffffffffffff1673ffffffffffffffffffffffffffffffffffffffff1673ffffffffffffffffffffffffffffffffffffffff1681526020019081526020015f205f9054906101000a900460ff166107c1575f80fd5b60055f8281526020019081526020015f20544710156107de575f80fd5b5f60045f8381526020019081526020015f205f6101000a81548160ff0219169083151502179055505f60015f9054906101000a900473ffffffffffffffffffffffffffffffffffffffff1673ffffffffffffffffffffffffffffffffffffffff164760405161084c906110bf565b5f6040518083038185875af1925050503d805f8114610886576040519150601f19603f3d011682016040523d82523d5f602084013e61088b565b606091505b5050905080610898575f80fd5b5f8054906101000a900473ffffffffffffffffffffffffffffffffffffffff1673ffffffffffffffffffffffffffffffffffffffff166323b872dd3060075f8681526020019081526020015f205f9054906101000a900473ffffffffffffffffffffffffffffffffffffffff16856040518463ffffffff1660e01b8152600401610924939291906110d3565b5f604051808303815f87803b15801561093b575f80fd5b505af115801561094d573d5f803e3d5ffd5b505050505050565b6009602052815f5260405f20602052805f5260405f205f915091509054906101000a900460ff1681565b60035f9054906101000a900473ffffffffffffffffffffffffffffffffffffffff1681565b5f151560085f8381526020019081526020015f205f9054906101000a900460ff16151503610a455760075f8281526020019081526020015f205f9054906101000a900473ffffffffffffffffffffffffffffffffffffffff1673ffffffffffffffffffffffffffffffffffffffff166108fc4790811502906040515f60405180830381858888f19350505050158015610a3f573d5f803e3d5ffd5b50610aab565b60015f9054906101000a900473ffffffffffffffffffffffffffffffffffffffff1673ffffffffffffffffffffffffffffffffffffffff166108fc4790811502906040515f60405180830381858888f19350505050158015610aa9573d5f803e3d5ffd5b505b50565b60015f9054906101000a900473ffffffffffffffffffffffffffffffffffffffff1673ffffffffffffffffffffffffffffffffffffffff163373ffffffffffffffffffffffffffffffffffffffff1614610b3d576040517f08c379a0000000000000000000000000000000000000000000000000000000008152600401610b3490611152565b60405180910390fd5b5f8054906101000a900473ffffffffffffffffffffffffffffffffffffffff1673ffffffffffffffffffffffffffffffffffffffff166323b872dd3330876040518463ffffffff1660e01b8152600401610b99939291906110d3565b5f604051808303815f87803b158015610bb0575f80fd5b505af1158015610bc2573d5f803e3d5ffd5b50505050600160045f8681526020019081526020015f205f6101000a81548160ff0219169083151502179055508160055f8681526020019081526020015f20819055508060065f8681526020019081526020015f20819055508260075f8681526020019081526020015f205f6101000a81548173ffffffffffffffffffffffffffffffffffffffff021916908373ffffffffffffffffffffffffffffffffffffffff16021790555050505050565b8060075f8281526020019081526020015f205f9054906101000a900473ffffffffffffffffffffffffffffffffffffffff1673ffffffffffffffffffffffffffffffffffffffff163373ffffffffffffffffffffffffffffffffffffffff1614610d0f576040517f08c379a0000000000000000000000000000000000000000000000000000000008152600401610d06906111ba565b60405180910390fd5b60065f8381526020019081526020015f2054341015610d2c575f80fd5b5050565b60025f9054906101000a900473ffffffffffffffffffffffffffffffffffffffff1681565b6004602052805f5260405f205f915054906101000a900460ff1681565b5f73ffffffffffffffffffffffffffffffffffffffff82169050919050565b5f610d9b82610d72565b9050919050565b610dab81610d91565b82525050565b5f602082019050610dc45f830184610da2565b92915050565b5f819050919050565b610ddc81610dca565b82525050565b5f602082019050610df55f830184610dd3565b92915050565b5f80fd5b610e0881610dca565b8114610e12575f80fd5b50565b5f81359050610e2381610dff565b92915050565b5f60208284031215610e3e57610e3d610dfb565b5b5f610e4b84828501610e15565b91505092915050565b5f610e5e82610d72565b9050919050565b610e6e81610e54565b82525050565b5f602082019050610e875f830184610e65565b92915050565b5f8115159050919050565b610ea181610e8d565b82525050565b5f602082019050610eba5f830184610e98565b92915050565b610ec981610e8d565b8114610ed3575f80fd5b50565b5f81359050610ee481610ec0565b92915050565b5f8060408385031215610f0057610eff610dfb565b5b5f610f0d85828601610e15565b9250506020610f1e85828601610ed6565b9150509250929050565b610f3181610e54565b8114610f3b575f80fd5b50565b5f81359050610f4c81610f28565b92915050565b5f8060408385031215610f6857610f67610dfb565b5b5f610f7585828601610e15565b9250506020610f8685828601610f3e565b9150509250929050565b5f805f8060808587031215610fa857610fa7610dfb565b5b5f610fb587828801610e15565b9450506020610fc687828801610f3e565b9350506040610fd787828801610e15565b9250506060610fe887828801610e15565b91505092959194509250565b5f82825260208201905092915050565b7f4f6e6c7920696e73706563746f722063616e2063616c6c2074686973206d65745f8201527f686f640000000000000000000000000000000000000000000000000000000000602082015250565b5f61105e602383610ff4565b915061106982611004565b604082019050919050565b5f6020820190508181035f83015261108b81611052565b9050919050565b5f81905092915050565b50565b5f6110aa5f83611092565b91506110b58261109c565b5f82019050919050565b5f6110c98261109f565b9150819050919050565b5f6060820190506110e65f830186610e65565b6110f36020830185610e65565b6111006040830184610dd3565b949350505050565b7f4f6e6c792073656c6c65722063616e2063616c6c2074686973206d6574686f645f82015250565b5f61113c602083610ff4565b915061114782611108565b602082019050919050565b5f6020820190508181035f83015261116981611130565b9050919050565b7f4f6e6c792062757965722063616e2063616c6c2074686973206d6574686f64005f82015250565b5f6111a4601f83610ff4565b91506111af82611170565b602082019050919050565b5f6020820190508181035f8301526111d181611198565b905091905056fea264697066735822122068a5adcf149362fc01d01a38481ea58840a3a721ad1198c42758700918b8539264736f6c63430008160033",
					"opcodes": "PUSH1 0x80 PUSH1 0x40 MSTORE CALLVALUE DUP1 ISZERO PUSH3 0x10 JUMPI PUSH0 DUP1 REVERT JUMPDEST POP PUSH1 0x40 MLOAD PUSH3 0x1471 CODESIZE SUB DUP1 PUSH3 0x1471 DUP4 CODECOPY DUP2 DUP2 ADD PUSH1 0x40 MSTORE DUP2 ADD SWAP1 PUSH3 0x36 SWAP2 SWAP1 PUSH3 0x1E6 JUMP JUMPDEST DUP4 PUSH0 DUP1 PUSH2 0x100 EXP DUP2 SLOAD DUP2 PUSH20 0xFFFFFFFFFFFFFFFFFFFFFFFFFFFFFFFFFFFFFFFF MUL NOT AND SWAP1 DUP4 PUSH20 0xFFFFFFFFFFFFFFFFFFFFFFFFFFFFFFFFFFFFFFFF AND MUL OR SWAP1 SSTORE POP DUP3 PUSH1 0x1 PUSH0 PUSH2 0x100 EXP DUP2 SLOAD DUP2 PUSH20 0xFFFFFFFFFFFFFFFFFFFFFFFFFFFFFFFFFFFFFFFF MUL NOT AND SWAP1 DUP4 PUSH20 0xFFFFFFFFFFFFFFFFFFFFFFFFFFFFFFFFFFFFFFFF AND MUL OR SWAP1 SSTORE POP DUP2 PUSH1 0x2 PUSH0 PUSH2 0x100 EXP DUP2 SLOAD DUP2 PUSH20 0xFFFFFFFFFFFFFFFFFFFFFFFFFFFFFFFFFFFFFFFF MUL NOT AND SWAP1 DUP4 PUSH20 0xFFFFFFFFFFFFFFFFFFFFFFFFFFFFFFFFFFFFFFFF AND MUL OR SWAP1 SSTORE POP DUP1 PUSH1 0x3 PUSH0 PUSH2 0x100 EXP DUP2 SLOAD DUP2 PUSH20 0xFFFFFFFFFFFFFFFFFFFFFFFFFFFFFFFFFFFFFFFF MUL NOT AND SWAP1 DUP4 PUSH20 0xFFFFFFFFFFFFFFFFFFFFFFFFFFFFFFFFFFFFFFFF AND MUL OR SWAP1 SSTORE POP POP POP POP POP PUSH3 0x255 JUMP JUMPDEST PUSH0 DUP1 REVERT JUMPDEST PUSH0 PUSH20 0xFFFFFFFFFFFFFFFFFFFFFFFFFFFFFFFFFFFFFFFF DUP3 AND SWAP1 POP SWAP2 SWAP1 POP JUMP JUMPDEST PUSH0 PUSH3 0x16E DUP3 PUSH3 0x143 JUMP JUMPDEST SWAP1 POP SWAP2 SWAP1 POP JUMP JUMPDEST PUSH3 0x180 DUP2 PUSH3 0x162 JUMP JUMPDEST DUP2 EQ PUSH3 0x18B JUMPI PUSH0 DUP1 REVERT JUMPDEST POP JUMP JUMPDEST PUSH0 DUP2 MLOAD SWAP1 POP PUSH3 0x19E DUP2 PUSH3 0x175 JUMP JUMPDEST SWAP3 SWAP2 POP POP JUMP JUMPDEST PUSH0 PUSH3 0x1B0 DUP3 PUSH3 0x143 JUMP JUMPDEST SWAP1 POP SWAP2 SWAP1 POP JUMP JUMPDEST PUSH3 0x1C2 DUP2 PUSH3 0x1A4 JUMP JUMPDEST DUP2 EQ PUSH3 0x1CD JUMPI PUSH0 DUP1 REVERT JUMPDEST POP JUMP JUMPDEST PUSH0 DUP2 MLOAD SWAP1 POP PUSH3 0x1E0 DUP2 PUSH3 0x1B7 JUMP JUMPDEST SWAP3 SWAP2 POP POP JUMP JUMPDEST PUSH0 DUP1 PUSH0 DUP1 PUSH1 0x80 DUP6 DUP8 SUB SLT ISZERO PUSH3 0x201 JUMPI PUSH3 0x200 PUSH3 0x13F JUMP JUMPDEST JUMPDEST PUSH0 PUSH3 0x210 DUP8 DUP3 DUP9 ADD PUSH3 0x18E JUMP JUMPDEST SWAP5 POP POP PUSH1 0x20 PUSH3 0x223 DUP8 DUP3 DUP9 ADD PUSH3 0x1D0 JUMP JUMPDEST SWAP4 POP POP PUSH1 0x40 PUSH3 0x236 DUP8 DUP3 DUP9 ADD PUSH3 0x18E JUMP JUMPDEST SWAP3 POP POP PUSH1 0x60 PUSH3 0x249 DUP8 DUP3 DUP9 ADD PUSH3 0x18E JUMP JUMPDEST SWAP2 POP POP SWAP3 SWAP6 SWAP2 SWAP5 POP SWAP3 POP JUMP JUMPDEST PUSH2 0x120E DUP1 PUSH3 0x263 PUSH0 CODECOPY PUSH0 RETURN INVALID PUSH1 0x80 PUSH1 0x40 MSTORE PUSH1 0x4 CALLDATASIZE LT PUSH2 0x101 JUMPI PUSH0 CALLDATALOAD PUSH1 0xE0 SHR DUP1 PUSH4 0x9D0E5FD6 GT PUSH2 0x94 JUMPI DUP1 PUSH4 0xBD94B005 GT PUSH2 0x63 JUMPI DUP1 PUSH4 0xBD94B005 EQ PUSH2 0x358 JUMPI DUP1 PUSH4 0xC9F0EC7E EQ PUSH2 0x380 JUMPI DUP1 PUSH4 0xE740F770 EQ PUSH2 0x39C JUMPI DUP1 PUSH4 0xED2CEE9E EQ PUSH2 0x3B8 JUMPI DUP1 PUSH4 0xFCCE4883 EQ PUSH2 0x3E2 JUMPI PUSH2 0x108 JUMP JUMPDEST DUP1 PUSH4 0x9D0E5FD6 EQ PUSH2 0x2A2 JUMPI DUP1 PUSH4 0xAA929380 EQ PUSH2 0x2CA JUMPI DUP1 PUSH4 0xB848DE35 EQ PUSH2 0x2F2 JUMPI DUP1 PUSH4 0xBCEAD63E EQ PUSH2 0x32E JUMPI PUSH2 0x108 JUMP JUMPDEST DUP1 PUSH4 0x5BF8633A GT PUSH2 0xD0 JUMPI DUP1 PUSH4 0x5BF8633A EQ PUSH2 0x1C4 JUMPI DUP1 PUSH4 0x5D19E56C EQ PUSH2 0x1EE JUMPI DUP1 PUSH4 0x5EED5FFF EQ PUSH2 0x22A JUMPI DUP1 PUSH4 0x77FBC4AE EQ PUSH2 0x266 JUMPI PUSH2 0x108 JUMP JUMPDEST DUP1 PUSH4 0x8551A53 EQ PUSH2 0x10C JUMPI DUP1 PUSH4 0x12065FE0 EQ PUSH2 0x136 JUMPI DUP1 PUSH4 0x14A72FEB EQ PUSH2 0x160 JUMPI DUP1 PUSH4 0x4DD4ACAF EQ PUSH2 0x188 JUMPI PUSH2 0x108 JUMP JUMPDEST CALLDATASIZE PUSH2 0x108 JUMPI STOP JUMPDEST PUSH0 DUP1 REVERT JUMPDEST CALLVALUE DUP1 ISZERO PUSH2 0x117 JUMPI PUSH0 DUP1 REVERT JUMPDEST POP PUSH2 0x120 PUSH2 0x41E JUMP JUMPDEST PUSH1 0x40 MLOAD PUSH2 0x12D SWAP2 SWAP1 PUSH2 0xDB1 JUMP JUMPDEST PUSH1 0x40 MLOAD DUP1 SWAP2 SUB SWAP1 RETURN JUMPDEST CALLVALUE DUP1 ISZERO PUSH2 0x141 JUMPI PUSH0 DUP1 REVERT JUMPDEST POP PUSH2 0x14A PUSH2 0x443 JUMP JUMPDEST PUSH1 0x40 MLOAD PUSH2 0x157 SWAP2 SWAP1 PUSH2 0xDE2 JUMP JUMPDEST PUSH1 0x40 MLOAD DUP1 SWAP2 SUB SWAP1 RETURN JUMPDEST CALLVALUE DUP1 ISZERO PUSH2 0x16B JUMPI PUSH0 DUP1 REVERT JUMPDEST POP PUSH2 0x186 PUSH1 0x4 DUP1 CALLDATASIZE SUB DUP2 ADD SWAP1 PUSH2 0x181 SWAP2 SWAP1 PUSH2 0xE29 JUMP JUMPDEST PUSH2 0x44A JUMP JUMPDEST STOP JUMPDEST CALLVALUE DUP1 ISZERO PUSH2 0x193 JUMPI PUSH0 DUP1 REVERT JUMPDEST POP PUSH2 0x1AE PUSH1 0x4 DUP1 CALLDATASIZE SUB DUP2 ADD SWAP1 PUSH2 0x1A9 SWAP2 SWAP1 PUSH2 0xE29 JUMP JUMPDEST PUSH2 0x4B1 JUMP JUMPDEST PUSH1 0x40 MLOAD PUSH2 0x1BB SWAP2 SWAP1 PUSH2 0xE74 JUMP JUMPDEST PUSH1 0x40 MLOAD DUP1 SWAP2 SUB SWAP1 RETURN JUMPDEST CALLVALUE DUP1 ISZERO PUSH2 0x1CF JUMPI PUSH0 DUP1 REVERT JUMPDEST POP PUSH2 0x1D8 PUSH2 0x4E1 JUMP JUMPDEST PUSH1 0x40 MLOAD PUSH2 0x1E5 SWAP2 SWAP1 PUSH2 0xE74 JUMP JUMPDEST PUSH1 0x40 MLOAD DUP1 SWAP2 SUB SWAP1 RETURN JUMPDEST CALLVALUE DUP1 ISZERO PUSH2 0x1F9 JUMPI PUSH0 DUP1 REVERT JUMPDEST POP PUSH2 0x214 PUSH1 0x4 DUP1 CALLDATASIZE SUB DUP2 ADD SWAP1 PUSH2 0x20F SWAP2 SWAP1 PUSH2 0xE29 JUMP JUMPDEST PUSH2 0x504 JUMP JUMPDEST PUSH1 0x40 MLOAD PUSH2 0x221 SWAP2 SWAP1 PUSH2 0xDE2 JUMP JUMPDEST PUSH1 0x40 MLOAD DUP1 SWAP2 SUB SWAP1 RETURN JUMPDEST CALLVALUE DUP1 ISZERO PUSH2 0x235 JUMPI PUSH0 DUP1 REVERT JUMPDEST POP PUSH2 0x250 PUSH1 0x4 DUP1 CALLDATASIZE SUB DUP2 ADD SWAP1 PUSH2 0x24B SWAP2 SWAP1 PUSH2 0xE29 JUMP JUMPDEST PUSH2 0x519 JUMP JUMPDEST PUSH1 0x40 MLOAD PUSH2 0x25D SWAP2 SWAP1 PUSH2 0xEA7 JUMP JUMPDEST PUSH1 0x40 MLOAD DUP1 SWAP2 SUB SWAP1 RETURN JUMPDEST CALLVALUE DUP1 ISZERO PUSH2 0x271 JUMPI PUSH0 DUP1 REVERT JUMPDEST POP PUSH2 0x28C PUSH1 0x4 DUP1 CALLDATASIZE SUB DUP2 ADD SWAP1 PUSH2 0x287 SWAP2 SWAP1 PUSH2 0xE29 JUMP JUMPDEST PUSH2 0x536 JUMP JUMPDEST PUSH1 0x40 MLOAD PUSH2 0x299 SWAP2 SWAP1 PUSH2 0xDE2 JUMP JUMPDEST PUSH1 0x40 MLOAD DUP1 SWAP2 SUB SWAP1 RETURN JUMPDEST CALLVALUE DUP1 ISZERO PUSH2 0x2AD JUMPI PUSH0 DUP1 REVERT JUMPDEST POP PUSH2 0x2C8 PUSH1 0x4 DUP1 CALLDATASIZE SUB DUP2 ADD SWAP1 PUSH2 0x2C3 SWAP2 SWAP1 PUSH2 0xEEA JUMP JUMPDEST PUSH2 0x54B JUMP JUMPDEST STOP JUMPDEST CALLVALUE DUP1 ISZERO PUSH2 0x2D5 JUMPI PUSH0 DUP1 REVERT JUMPDEST POP PUSH2 0x2F0 PUSH1 0x4 DUP1 CALLDATASIZE SUB DUP2 ADD SWAP1 PUSH2 0x2EB SWAP2 SWAP1 PUSH2 0xE29 JUMP JUMPDEST PUSH2 0x606 JUMP JUMPDEST STOP JUMPDEST CALLVALUE DUP1 ISZERO PUSH2 0x2FD JUMPI PUSH0 DUP1 REVERT JUMPDEST POP PUSH2 0x318 PUSH1 0x4 DUP1 CALLDATASIZE SUB DUP2 ADD SWAP1 PUSH2 0x313 SWAP2 SWAP1 PUSH2 0xF52 JUMP JUMPDEST PUSH2 0x955 JUMP JUMPDEST PUSH1 0x40 MLOAD PUSH2 0x325 SWAP2 SWAP1 PUSH2 0xEA7 JUMP JUMPDEST PUSH1 0x40 MLOAD DUP1 SWAP2 SUB SWAP1 RETURN JUMPDEST CALLVALUE DUP1 ISZERO PUSH2 0x339 JUMPI PUSH0 DUP1 REVERT JUMPDEST POP PUSH2 0x342 PUSH2 0x97F JUMP JUMPDEST PUSH1 0x40 MLOAD PUSH2 0x34F SWAP2 SWAP1 PUSH2 0xE74 JUMP JUMPDEST PUSH1 0x40 MLOAD DUP1 SWAP2 SUB SWAP1 RETURN JUMPDEST CALLVALUE DUP1 ISZERO PUSH2 0x363 JUMPI PUSH0 DUP1 REVERT JUMPDEST POP PUSH2 0x37E PUSH1 0x4 DUP1 CALLDATASIZE SUB DUP2 ADD SWAP1 PUSH2 0x379 SWAP2 SWAP1 PUSH2 0xE29 JUMP JUMPDEST PUSH2 0x9A4 JUMP JUMPDEST STOP JUMPDEST PUSH2 0x39A PUSH1 0x4 DUP1 CALLDATASIZE SUB DUP2 ADD SWAP1 PUSH2 0x395 SWAP2 SWAP1 PUSH2 0xF90 JUMP JUMPDEST PUSH2 0xAAE JUMP JUMPDEST STOP JUMPDEST PUSH2 0x3B6 PUSH1 0x4 DUP1 CALLDATASIZE SUB DUP2 ADD SWAP1 PUSH2 0x3B1 SWAP2 SWAP1 PUSH2 0xE29 JUMP JUMPDEST PUSH2 0xC70 JUMP JUMPDEST STOP JUMPDEST CALLVALUE DUP1 ISZERO PUSH2 0x3C3 JUMPI PUSH0 DUP1 REVERT JUMPDEST POP PUSH2 0x3CC PUSH2 0xD30 JUMP JUMPDEST PUSH1 0x40 MLOAD PUSH2 0x3D9 SWAP2 SWAP1 PUSH2 0xE74 JUMP JUMPDEST PUSH1 0x40 MLOAD DUP1 SWAP2 SUB SWAP1 RETURN JUMPDEST CALLVALUE DUP1 ISZERO PUSH2 0x3ED JUMPI PUSH0 DUP1 REVERT JUMPDEST POP PUSH2 0x408 PUSH1 0x4 DUP1 CALLDATASIZE SUB DUP2 ADD SWAP1 PUSH2 0x403 SWAP2 SWAP1 PUSH2 0xE29 JUMP JUMPDEST PUSH2 0xD55 JUMP JUMPDEST PUSH1 0x40 MLOAD PUSH2 0x415 SWAP2 SWAP1 PUSH2 0xEA7 JUMP JUMPDEST PUSH1 0x40 MLOAD DUP1 SWAP2 SUB SWAP1 RETURN JUMPDEST PUSH1 0x1 PUSH0 SWAP1 SLOAD SWAP1 PUSH2 0x100 EXP SWAP1 DIV PUSH20 0xFFFFFFFFFFFFFFFFFFFFFFFFFFFFFFFFFFFFFFFF AND DUP2 JUMP JUMPDEST PUSH0 SELFBALANCE SWAP1 POP SWAP1 JUMP JUMPDEST PUSH1 0x1 PUSH1 0x9 PUSH0 DUP4 DUP2 MSTORE PUSH1 0x20 ADD SWAP1 DUP2 MSTORE PUSH1 0x20 ADD PUSH0 KECCAK256 PUSH0 CALLER PUSH20 0xFFFFFFFFFFFFFFFFFFFFFFFFFFFFFFFFFFFFFFFF AND PUSH20 0xFFFFFFFFFFFFFFFFFFFFFFFFFFFFFFFFFFFFFFFF AND DUP2 MSTORE PUSH1 0x20 ADD SWAP1 DUP2 MSTORE PUSH1 0x20 ADD PUSH0 KECCAK256 PUSH0 PUSH2 0x100 EXP DUP2 SLOAD DUP2 PUSH1 0xFF MUL NOT AND SWAP1 DUP4 ISZERO ISZERO MUL OR SWAP1 SSTORE POP POP JUMP JUMPDEST PUSH1 0x7 PUSH1 0x20 MSTORE DUP1 PUSH0 MSTORE PUSH1 0x40 PUSH0 KECCAK256 PUSH0 SWAP2 POP SLOAD SWAP1 PUSH2 0x100 EXP SWAP1 DIV PUSH20 0xFFFFFFFFFFFFFFFFFFFFFFFFFFFFFFFFFFFFFFFF AND DUP2 JUMP JUMPDEST PUSH0 DUP1 SLOAD SWAP1 PUSH2 0x100 EXP SWAP1 DIV PUSH20 0xFFFFFFFFFFFFFFFFFFFFFFFFFFFFFFFFFFFFFFFF AND DUP2 JUMP JUMPDEST PUSH1 0x6 PUSH1 0x20 MSTORE DUP1 PUSH0 MSTORE PUSH1 0x40 PUSH0 KECCAK256 PUSH0 SWAP2 POP SWAP1 POP SLOAD DUP2 JUMP JUMPDEST PUSH1 0x8 PUSH1 0x20 MSTORE DUP1 PUSH0 MSTORE PUSH1 0x40 PUSH0 KECCAK256 PUSH0 SWAP2 POP SLOAD SWAP1 PUSH2 0x100 EXP SWAP1 DIV PUSH1 0xFF AND DUP2 JUMP JUMPDEST PUSH1 0x5 PUSH1 0x20 MSTORE DUP1 PUSH0 MSTORE PUSH1 0x40 PUSH0 KECCAK256 PUSH0 SWAP2 POP SWAP1 POP SLOAD DUP2 JUMP JUMPDEST PUSH1 0x2 PUSH0 SWAP1 SLOAD SWAP1 PUSH2 0x100 EXP SWAP1 DIV PUSH20 0xFFFFFFFFFFFFFFFFFFFFFFFFFFFFFFFFFFFFFFFF AND PUSH20 0xFFFFFFFFFFFFFFFFFFFFFFFFFFFFFFFFFFFFFFFF AND CALLER PUSH20 0xFFFFFFFFFFFFFFFFFFFFFFFFFFFFFFFFFFFFFFFF AND EQ PUSH2 0x5DA JUMPI PUSH1 0x40 MLOAD PUSH32 0x8C379A000000000000000000000000000000000000000000000000000000000 DUP2 MSTORE PUSH1 0x4 ADD PUSH2 0x5D1 SWAP1 PUSH2 0x1074 JUMP JUMPDEST PUSH1 0x40 MLOAD DUP1 SWAP2 SUB SWAP1 REVERT JUMPDEST DUP1 PUSH1 0x8 PUSH0 DUP5 DUP2 MSTORE PUSH1 0x20 ADD SWAP1 DUP2 MSTORE PUSH1 0x20 ADD PUSH0 KECCAK256 PUSH0 PUSH2 0x100 EXP DUP2 SLOAD DUP2 PUSH1 0xFF MUL NOT AND SWAP1 DUP4 ISZERO ISZERO MUL OR SWAP1 SSTORE POP POP POP JUMP JUMPDEST PUSH1 0x8 PUSH0 DUP3 DUP2 MSTORE PUSH1 0x20 ADD SWAP1 DUP2 MSTORE PUSH1 0x20 ADD PUSH0 KECCAK256 PUSH0 SWAP1 SLOAD SWAP1 PUSH2 0x100 EXP SWAP1 DIV PUSH1 0xFF AND PUSH2 0x62C JUMPI PUSH0 DUP1 REVERT JUMPDEST PUSH1 0x9 PUSH0 DUP3 DUP2 MSTORE PUSH1 0x20 ADD SWAP1 DUP2 MSTORE PUSH1 0x20 ADD PUSH0 KECCAK256 PUSH0 PUSH1 0x7 PUSH0 DUP5 DUP2 MSTORE PUSH1 0x20 ADD SWAP1 DUP2 MSTORE PUSH1 0x20 ADD PUSH0 KECCAK256 PUSH0 SWAP1 SLOAD SWAP1 PUSH2 0x100 EXP SWAP1 DIV PUSH20 0xFFFFFFFFFFFFFFFFFFFFFFFFFFFFFFFFFFFFFFFF AND PUSH20 0xFFFFFFFFFFFFFFFFFFFFFFFFFFFFFFFFFFFFFFFF AND PUSH20 0xFFFFFFFFFFFFFFFFFFFFFFFFFFFFFFFFFFFFFFFF AND DUP2 MSTORE PUSH1 0x20 ADD SWAP1 DUP2 MSTORE PUSH1 0x20 ADD PUSH0 KECCAK256 PUSH0 SWAP1 SLOAD SWAP1 PUSH2 0x100 EXP SWAP1 DIV PUSH1 0xFF AND PUSH2 0x6BD JUMPI PUSH0 DUP1 REVERT JUMPDEST PUSH1 0x9 PUSH0 DUP3 DUP2 MSTORE PUSH1 0x20 ADD SWAP1 DUP2 MSTORE PUSH1 0x20 ADD PUSH0 KECCAK256 PUSH0 PUSH1 0x1 PUSH0 SWAP1 SLOAD SWAP1 PUSH2 0x100 EXP SWAP1 DIV PUSH20 0xFFFFFFFFFFFFFFFFFFFFFFFFFFFFFFFFFFFFFFFF AND PUSH20 0xFFFFFFFFFFFFFFFFFFFFFFFFFFFFFFFFFFFFFFFF AND PUSH20 0xFFFFFFFFFFFFFFFFFFFFFFFFFFFFFFFFFFFFFFFF AND DUP2 MSTORE PUSH1 0x20 ADD SWAP1 DUP2 MSTORE PUSH1 0x20 ADD PUSH0 KECCAK256 PUSH0 SWAP1 SLOAD SWAP1 PUSH2 0x100 EXP SWAP1 DIV PUSH1 0xFF AND PUSH2 0x73F JUMPI PUSH0 DUP1 REVERT JUMPDEST PUSH1 0x9 PUSH0 DUP3 DUP2 MSTORE PUSH1 0x20 ADD SWAP1 DUP2 MSTORE PUSH1 0x20 ADD PUSH0 KECCAK256 PUSH0 PUSH1 0x3 PUSH0 SWAP1 SLOAD SWAP1 PUSH2 0x100 EXP SWAP1 DIV PUSH20 0xFFFFFFFFFFFFFFFFFFFFFFFFFFFFFFFFFFFFFFFF AND PUSH20 0xFFFFFFFFFFFFFFFFFFFFFFFFFFFFFFFFFFFFFFFF AND PUSH20 0xFFFFFFFFFFFFFFFFFFFFFFFFFFFFFFFFFFFFFFFF AND DUP2 MSTORE PUSH1 0x20 ADD SWAP1 DUP2 MSTORE PUSH1 0x20 ADD PUSH0 KECCAK256 PUSH0 SWAP1 SLOAD SWAP1 PUSH2 0x100 EXP SWAP1 DIV PUSH1 0xFF AND PUSH2 0x7C1 JUMPI PUSH0 DUP1 REVERT JUMPDEST PUSH1 0x5 PUSH0 DUP3 DUP2 MSTORE PUSH1 0x20 ADD SWAP1 DUP2 MSTORE PUSH1 0x20 ADD PUSH0 KECCAK256 SLOAD SELFBALANCE LT ISZERO PUSH2 0x7DE JUMPI PUSH0 DUP1 REVERT JUMPDEST PUSH0 PUSH1 0x4 PUSH0 DUP4 DUP2 MSTORE PUSH1 0x20 ADD SWAP1 DUP2 MSTORE PUSH1 0x20 ADD PUSH0 KECCAK256 PUSH0 PUSH2 0x100 EXP DUP2 SLOAD DUP2 PUSH1 0xFF MUL NOT AND SWAP1 DUP4 ISZERO ISZERO MUL OR SWAP1 SSTORE POP PUSH0 PUSH1 0x1 PUSH0 SWAP1 SLOAD SWAP1 PUSH2 0x100 EXP SWAP1 DIV PUSH20 0xFFFFFFFFFFFFFFFFFFFFFFFFFFFFFFFFFFFFFFFF AND PUSH20 0xFFFFFFFFFFFFFFFFFFFFFFFFFFFFFFFFFFFFFFFF AND SELFBALANCE PUSH1 0x40 MLOAD PUSH2 0x84C SWAP1 PUSH2 0x10BF JUMP JUMPDEST PUSH0 PUSH1 0x40 MLOAD DUP1 DUP4 SUB DUP2 DUP6 DUP8 GAS CALL SWAP3 POP POP POP RETURNDATASIZE DUP1 PUSH0 DUP2 EQ PUSH2 0x886 JUMPI PUSH1 0x40 MLOAD SWAP2 POP PUSH1 0x1F NOT PUSH1 0x3F RETURNDATASIZE ADD AND DUP3 ADD PUSH1 0x40 MSTORE RETURNDATASIZE DUP3 MSTORE RETURNDATASIZE PUSH0 PUSH1 0x20 DUP5 ADD RETURNDATACOPY PUSH2 0x88B JUMP JUMPDEST PUSH1 0x60 SWAP2 POP JUMPDEST POP POP SWAP1 POP DUP1 PUSH2 0x898 JUMPI PUSH0 DUP1 REVERT JUMPDEST PUSH0 DUP1 SLOAD SWAP1 PUSH2 0x100 EXP SWAP1 DIV PUSH20 0xFFFFFFFFFFFFFFFFFFFFFFFFFFFFFFFFFFFFFFFF AND PUSH20 0xFFFFFFFFFFFFFFFFFFFFFFFFFFFFFFFFFFFFFFFF AND PUSH4 0x23B872DD ADDRESS PUSH1 0x7 PUSH0 DUP7 DUP2 MSTORE PUSH1 0x20 ADD SWAP1 DUP2 MSTORE PUSH1 0x20 ADD PUSH0 KECCAK256 PUSH0 SWAP1 SLOAD SWAP1 PUSH2 0x100 EXP SWAP1 DIV PUSH20 0xFFFFFFFFFFFFFFFFFFFFFFFFFFFFFFFFFFFFFFFF AND DUP6 PUSH1 0x40 MLOAD DUP5 PUSH4 0xFFFFFFFF AND PUSH1 0xE0 SHL DUP2 MSTORE PUSH1 0x4 ADD PUSH2 0x924 SWAP4 SWAP3 SWAP2 SWAP1 PUSH2 0x10D3 JUMP JUMPDEST PUSH0 PUSH1 0x40 MLOAD DUP1 DUP4 SUB DUP2 PUSH0 DUP8 DUP1 EXTCODESIZE ISZERO DUP1 ISZERO PUSH2 0x93B JUMPI PUSH0 DUP1 REVERT JUMPDEST POP GAS CALL ISZERO DUP1 ISZERO PUSH2 0x94D JUMPI RETURNDATASIZE PUSH0 DUP1 RETURNDATACOPY RETURNDATASIZE PUSH0 REVERT JUMPDEST POP POP POP POP POP POP JUMP JUMPDEST PUSH1 0x9 PUSH1 0x20 MSTORE DUP2 PUSH0 MSTORE PUSH1 0x40 PUSH0 KECCAK256 PUSH1 0x20 MSTORE DUP1 PUSH0 MSTORE PUSH1 0x40 PUSH0 KECCAK256 PUSH0 SWAP2 POP SWAP2 POP SWAP1 SLOAD SWAP1 PUSH2 0x100 EXP SWAP1 DIV PUSH1 0xFF AND DUP2 JUMP JUMPDEST PUSH1 0x3 PUSH0 SWAP1 SLOAD SWAP1 PUSH2 0x100 EXP SWAP1 DIV PUSH20 0xFFFFFFFFFFFFFFFFFFFFFFFFFFFFFFFFFFFFFFFF AND DUP2 JUMP JUMPDEST PUSH0 ISZERO ISZERO PUSH1 0x8 PUSH0 DUP4 DUP2 MSTORE PUSH1 0x20 ADD SWAP1 DUP2 MSTORE PUSH1 0x20 ADD PUSH0 KECCAK256 PUSH0 SWAP1 SLOAD SWAP1 PUSH2 0x100 EXP SWAP1 DIV PUSH1 0xFF AND ISZERO ISZERO SUB PUSH2 0xA45 JUMPI PUSH1 0x7 PUSH0 DUP3 DUP2 MSTORE PUSH1 0x20 ADD SWAP1 DUP2 MSTORE PUSH1 0x20 ADD PUSH0 KECCAK256 PUSH0 SWAP1 SLOAD SWAP1 PUSH2 0x100 EXP SWAP1 DIV PUSH20 0xFFFFFFFFFFFFFFFFFFFFFFFFFFFFFFFFFFFFFFFF AND PUSH20 0xFFFFFFFFFFFFFFFFFFFFFFFFFFFFFFFFFFFFFFFF AND PUSH2 0x8FC SELFBALANCE SWAP1 DUP2 ISZERO MUL SWAP1 PUSH1 0x40 MLOAD PUSH0 PUSH1 0x40 MLOAD DUP1 DUP4 SUB DUP2 DUP6 DUP9 DUP9 CALL SWAP4 POP POP POP POP ISZERO DUP1 ISZERO PUSH2 0xA3F JUMPI RETURNDATASIZE PUSH0 DUP1 RETURNDATACOPY RETURNDATASIZE PUSH0 REVERT JUMPDEST POP PUSH2 0xAAB JUMP JUMPDEST PUSH1 0x1 PUSH0 SWAP1 SLOAD SWAP1 PUSH2 0x100 EXP SWAP1 DIV PUSH20 0xFFFFFFFFFFFFFFFFFFFFFFFFFFFFFFFFFFFFFFFF AND PUSH20 0xFFFFFFFFFFFFFFFFFFFFFFFFFFFFFFFFFFFFFFFF AND PUSH2 0x8FC SELFBALANCE SWAP1 DUP2 ISZERO MUL SWAP1 PUSH1 0x40 MLOAD PUSH0 PUSH1 0x40 MLOAD DUP1 DUP4 SUB DUP2 DUP6 DUP9 DUP9 CALL SWAP4 POP POP POP POP ISZERO DUP1 ISZERO PUSH2 0xAA9 JUMPI RETURNDATASIZE PUSH0 DUP1 RETURNDATACOPY RETURNDATASIZE PUSH0 REVERT JUMPDEST POP JUMPDEST POP JUMP JUMPDEST PUSH1 0x1 PUSH0 SWAP1 SLOAD SWAP1 PUSH2 0x100 EXP SWAP1 DIV PUSH20 0xFFFFFFFFFFFFFFFFFFFFFFFFFFFFFFFFFFFFFFFF AND PUSH20 0xFFFFFFFFFFFFFFFFFFFFFFFFFFFFFFFFFFFFFFFF AND CALLER PUSH20 0xFFFFFFFFFFFFFFFFFFFFFFFFFFFFFFFFFFFFFFFF AND EQ PUSH2 0xB3D JUMPI PUSH1 0x40 MLOAD PUSH32 0x8C379A000000000000000000000000000000000000000000000000000000000 DUP2 MSTORE PUSH1 0x4 ADD PUSH2 0xB34 SWAP1 PUSH2 0x1152 JUMP JUMPDEST PUSH1 0x40 MLOAD DUP1 SWAP2 SUB SWAP1 REVERT JUMPDEST PUSH0 DUP1 SLOAD SWAP1 PUSH2 0x100 EXP SWAP1 DIV PUSH20 0xFFFFFFFFFFFFFFFFFFFFFFFFFFFFFFFFFFFFFFFF AND PUSH20 0xFFFFFFFFFFFFFFFFFFFFFFFFFFFFFFFFFFFFFFFF AND PUSH4 0x23B872DD CALLER ADDRESS DUP8 PUSH1 0x40 MLOAD DUP5 PUSH4 0xFFFFFFFF AND PUSH1 0xE0 SHL DUP2 MSTORE PUSH1 0x4 ADD PUSH2 0xB99 SWAP4 SWAP3 SWAP2 SWAP1 PUSH2 0x10D3 JUMP JUMPDEST PUSH0 PUSH1 0x40 MLOAD DUP1 DUP4 SUB DUP2 PUSH0 DUP8 DUP1 EXTCODESIZE ISZERO DUP1 ISZERO PUSH2 0xBB0 JUMPI PUSH0 DUP1 REVERT JUMPDEST POP GAS CALL ISZERO DUP1 ISZERO PUSH2 0xBC2 JUMPI RETURNDATASIZE PUSH0 DUP1 RETURNDATACOPY RETURNDATASIZE PUSH0 REVERT JUMPDEST POP POP POP POP PUSH1 0x1 PUSH1 0x4 PUSH0 DUP7 DUP2 MSTORE PUSH1 0x20 ADD SWAP1 DUP2 MSTORE PUSH1 0x20 ADD PUSH0 KECCAK256 PUSH0 PUSH2 0x100 EXP DUP2 SLOAD DUP2 PUSH1 0xFF MUL NOT AND SWAP1 DUP4 ISZERO ISZERO MUL OR SWAP1 SSTORE POP DUP2 PUSH1 0x5 PUSH0 DUP7 DUP2 MSTORE PUSH1 0x20 ADD SWAP1 DUP2 MSTORE PUSH1 0x20 ADD PUSH0 KECCAK256 DUP2 SWAP1 SSTORE POP DUP1 PUSH1 0x6 PUSH0 DUP7 DUP2 MSTORE PUSH1 0x20 ADD SWAP1 DUP2 MSTORE PUSH1 0x20 ADD PUSH0 KECCAK256 DUP2 SWAP1 SSTORE POP DUP3 PUSH1 0x7 PUSH0 DUP7 DUP2 MSTORE PUSH1 0x20 ADD SWAP1 DUP2 MSTORE PUSH1 0x20 ADD PUSH0 KECCAK256 PUSH0 PUSH2 0x100 EXP DUP2 SLOAD DUP2 PUSH20 0xFFFFFFFFFFFFFFFFFFFFFFFFFFFFFFFFFFFFFFFF MUL NOT AND SWAP1 DUP4 PUSH20 0xFFFFFFFFFFFFFFFFFFFFFFFFFFFFFFFFFFFFFFFF AND MUL OR SWAP1 SSTORE POP POP POP POP POP JUMP JUMPDEST DUP1 PUSH1 0x7 PUSH0 DUP3 DUP2 MSTORE PUSH1 0x20 ADD SWAP1 DUP2 MSTORE PUSH1 0x20 ADD PUSH0 KECCAK256 PUSH0 SWAP1 SLOAD SWAP1 PUSH2 0x100 EXP SWAP1 DIV PUSH20 0xFFFFFFFFFFFFFFFFFFFFFFFFFFFFFFFFFFFFFFFF AND PUSH20 0xFFFFFFFFFFFFFFFFFFFFFFFFFFFFFFFFFFFFFFFF AND CALLER PUSH20 0xFFFFFFFFFFFFFFFFFFFFFFFFFFFFFFFFFFFFFFFF AND EQ PUSH2 0xD0F JUMPI PUSH1 0x40 MLOAD PUSH32 0x8C379A000000000000000000000000000000000000000000000000000000000 DUP2 MSTORE PUSH1 0x4 ADD PUSH2 0xD06 SWAP1 PUSH2 0x11BA JUMP JUMPDEST PUSH1 0x40 MLOAD DUP1 SWAP2 SUB SWAP1 REVERT JUMPDEST PUSH1 0x6 PUSH0 DUP4 DUP2 MSTORE PUSH1 0x20 ADD SWAP1 DUP2 MSTORE PUSH1 0x20 ADD PUSH0 KECCAK256 SLOAD CALLVALUE LT ISZERO PUSH2 0xD2C JUMPI PUSH0 DUP1 REVERT JUMPDEST POP POP JUMP JUMPDEST PUSH1 0x2 PUSH0 SWAP1 SLOAD SWAP1 PUSH2 0x100 EXP SWAP1 DIV PUSH20 0xFFFFFFFFFFFFFFFFFFFFFFFFFFFFFFFFFFFFFFFF AND DUP2 JUMP JUMPDEST PUSH1 0x4 PUSH1 0x20 MSTORE DUP1 PUSH0 MSTORE PUSH1 0x40 PUSH0 KECCAK256 PUSH0 SWAP2 POP SLOAD SWAP1 PUSH2 0x100 EXP SWAP1 DIV PUSH1 0xFF AND DUP2 JUMP JUMPDEST PUSH0 PUSH20 0xFFFFFFFFFFFFFFFFFFFFFFFFFFFFFFFFFFFFFFFF DUP3 AND SWAP1 POP SWAP2 SWAP1 POP JUMP JUMPDEST PUSH0 PUSH2 0xD9B DUP3 PUSH2 0xD72 JUMP JUMPDEST SWAP1 POP SWAP2 SWAP1 POP JUMP JUMPDEST PUSH2 0xDAB DUP2 PUSH2 0xD91 JUMP JUMPDEST DUP3 MSTORE POP POP JUMP JUMPDEST PUSH0 PUSH1 0x20 DUP3 ADD SWAP1 POP PUSH2 0xDC4 PUSH0 DUP4 ADD DUP5 PUSH2 0xDA2 JUMP JUMPDEST SWAP3 SWAP2 POP POP JUMP JUMPDEST PUSH0 DUP2 SWAP1 POP SWAP2 SWAP1 POP JUMP JUMPDEST PUSH2 0xDDC DUP2 PUSH2 0xDCA JUMP JUMPDEST DUP3 MSTORE POP POP JUMP JUMPDEST PUSH0 PUSH1 0x20 DUP3 ADD SWAP1 POP PUSH2 0xDF5 PUSH0 DUP4 ADD DUP5 PUSH2 0xDD3 JUMP JUMPDEST SWAP3 SWAP2 POP POP JUMP JUMPDEST PUSH0 DUP1 REVERT JUMPDEST PUSH2 0xE08 DUP2 PUSH2 0xDCA JUMP JUMPDEST DUP2 EQ PUSH2 0xE12 JUMPI PUSH0 DUP1 REVERT JUMPDEST POP JUMP JUMPDEST PUSH0 DUP2 CALLDATALOAD SWAP1 POP PUSH2 0xE23 DUP2 PUSH2 0xDFF JUMP JUMPDEST SWAP3 SWAP2 POP POP JUMP JUMPDEST PUSH0 PUSH1 0x20 DUP3 DUP5 SUB SLT ISZERO PUSH2 0xE3E JUMPI PUSH2 0xE3D PUSH2 0xDFB JUMP JUMPDEST JUMPDEST PUSH0 PUSH2 0xE4B DUP5 DUP3 DUP6 ADD PUSH2 0xE15 JUMP JUMPDEST SWAP2 POP POP SWAP3 SWAP2 POP POP JUMP JUMPDEST PUSH0 PUSH2 0xE5E DUP3 PUSH2 0xD72 JUMP JUMPDEST SWAP1 POP SWAP2 SWAP1 POP JUMP JUMPDEST PUSH2 0xE6E DUP2 PUSH2 0xE54 JUMP JUMPDEST DUP3 MSTORE POP POP JUMP JUMPDEST PUSH0 PUSH1 0x20 DUP3 ADD SWAP1 POP PUSH2 0xE87 PUSH0 DUP4 ADD DUP5 PUSH2 0xE65 JUMP JUMPDEST SWAP3 SWAP2 POP POP JUMP JUMPDEST PUSH0 DUP2 ISZERO ISZERO SWAP1 POP SWAP2 SWAP1 POP JUMP JUMPDEST PUSH2 0xEA1 DUP2 PUSH2 0xE8D JUMP JUMPDEST DUP3 MSTORE POP POP JUMP JUMPDEST PUSH0 PUSH1 0x20 DUP3 ADD SWAP1 POP PUSH2 0xEBA PUSH0 DUP4 ADD DUP5 PUSH2 0xE98 JUMP JUMPDEST SWAP3 SWAP2 POP POP JUMP JUMPDEST PUSH2 0xEC9 DUP2 PUSH2 0xE8D JUMP JUMPDEST DUP2 EQ PUSH2 0xED3 JUMPI PUSH0 DUP1 REVERT JUMPDEST POP JUMP JUMPDEST PUSH0 DUP2 CALLDATALOAD SWAP1 POP PUSH2 0xEE4 DUP2 PUSH2 0xEC0 JUMP JUMPDEST SWAP3 SWAP2 POP POP JUMP JUMPDEST PUSH0 DUP1 PUSH1 0x40 DUP4 DUP6 SUB SLT ISZERO PUSH2 0xF00 JUMPI PUSH2 0xEFF PUSH2 0xDFB JUMP JUMPDEST JUMPDEST PUSH0 PUSH2 0xF0D DUP6 DUP3 DUP7 ADD PUSH2 0xE15 JUMP JUMPDEST SWAP3 POP POP PUSH1 0x20 PUSH2 0xF1E DUP6 DUP3 DUP7 ADD PUSH2 0xED6 JUMP JUMPDEST SWAP2 POP POP SWAP3 POP SWAP3 SWAP1 POP JUMP JUMPDEST PUSH2 0xF31 DUP2 PUSH2 0xE54 JUMP JUMPDEST DUP2 EQ PUSH2 0xF3B JUMPI PUSH0 DUP1 REVERT JUMPDEST POP JUMP JUMPDEST PUSH0 DUP2 CALLDATALOAD SWAP1 POP PUSH2 0xF4C DUP2 PUSH2 0xF28 JUMP JUMPDEST SWAP3 SWAP2 POP POP JUMP JUMPDEST PUSH0 DUP1 PUSH1 0x40 DUP4 DUP6 SUB SLT ISZERO PUSH2 0xF68 JUMPI PUSH2 0xF67 PUSH2 0xDFB JUMP JUMPDEST JUMPDEST PUSH0 PUSH2 0xF75 DUP6 DUP3 DUP7 ADD PUSH2 0xE15 JUMP JUMPDEST SWAP3 POP POP PUSH1 0x20 PUSH2 0xF86 DUP6 DUP3 DUP7 ADD PUSH2 0xF3E JUMP JUMPDEST SWAP2 POP POP SWAP3 POP SWAP3 SWAP1 POP JUMP JUMPDEST PUSH0 DUP1 PUSH0 DUP1 PUSH1 0x80 DUP6 DUP8 SUB SLT ISZERO PUSH2 0xFA8 JUMPI PUSH2 0xFA7 PUSH2 0xDFB JUMP JUMPDEST JUMPDEST PUSH0 PUSH2 0xFB5 DUP8 DUP3 DUP9 ADD PUSH2 0xE15 JUMP JUMPDEST SWAP5 POP POP PUSH1 0x20 PUSH2 0xFC6 DUP8 DUP3 DUP9 ADD PUSH2 0xF3E JUMP JUMPDEST SWAP4 POP POP PUSH1 0x40 PUSH2 0xFD7 DUP8 DUP3 DUP9 ADD PUSH2 0xE15 JUMP JUMPDEST SWAP3 POP POP PUSH1 0x60 PUSH2 0xFE8 DUP8 DUP3 DUP9 ADD PUSH2 0xE15 JUMP JUMPDEST SWAP2 POP POP SWAP3 SWAP6 SWAP2 SWAP5 POP SWAP3 POP JUMP JUMPDEST PUSH0 DUP3 DUP3 MSTORE PUSH1 0x20 DUP3 ADD SWAP1 POP SWAP3 SWAP2 POP POP JUMP JUMPDEST PUSH32 0x4F6E6C7920696E73706563746F722063616E2063616C6C2074686973206D6574 PUSH0 DUP3 ADD MSTORE PUSH32 0x686F640000000000000000000000000000000000000000000000000000000000 PUSH1 0x20 DUP3 ADD MSTORE POP JUMP JUMPDEST PUSH0 PUSH2 0x105E PUSH1 0x23 DUP4 PUSH2 0xFF4 JUMP JUMPDEST SWAP2 POP PUSH2 0x1069 DUP3 PUSH2 0x1004 JUMP JUMPDEST PUSH1 0x40 DUP3 ADD SWAP1 POP SWAP2 SWAP1 POP JUMP JUMPDEST PUSH0 PUSH1 0x20 DUP3 ADD SWAP1 POP DUP2 DUP2 SUB PUSH0 DUP4 ADD MSTORE PUSH2 0x108B DUP2 PUSH2 0x1052 JUMP JUMPDEST SWAP1 POP SWAP2 SWAP1 POP JUMP JUMPDEST PUSH0 DUP2 SWAP1 POP SWAP3 SWAP2 POP POP JUMP JUMPDEST POP JUMP JUMPDEST PUSH0 PUSH2 0x10AA PUSH0 DUP4 PUSH2 0x1092 JUMP JUMPDEST SWAP2 POP PUSH2 0x10B5 DUP3 PUSH2 0x109C JUMP JUMPDEST PUSH0 DUP3 ADD SWAP1 POP SWAP2 SWAP1 POP JUMP JUMPDEST PUSH0 PUSH2 0x10C9 DUP3 PUSH2 0x109F JUMP JUMPDEST SWAP2 POP DUP2 SWAP1 POP SWAP2 SWAP1 POP JUMP JUMPDEST PUSH0 PUSH1 0x60 DUP3 ADD SWAP1 POP PUSH2 0x10E6 PUSH0 DUP4 ADD DUP7 PUSH2 0xE65 JUMP JUMPDEST PUSH2 0x10F3 PUSH1 0x20 DUP4 ADD DUP6 PUSH2 0xE65 JUMP JUMPDEST PUSH2 0x1100 PUSH1 0x40 DUP4 ADD DUP5 PUSH2 0xDD3 JUMP JUMPDEST SWAP5 SWAP4 POP POP POP POP JUMP JUMPDEST PUSH32 0x4F6E6C792073656C6C65722063616E2063616C6C2074686973206D6574686F64 PUSH0 DUP3 ADD MSTORE POP JUMP JUMPDEST PUSH0 PUSH2 0x113C PUSH1 0x20 DUP4 PUSH2 0xFF4 JUMP JUMPDEST SWAP2 POP PUSH2 0x1147 DUP3 PUSH2 0x1108 JUMP JUMPDEST PUSH1 0x20 DUP3 ADD SWAP1 POP SWAP2 SWAP1 POP JUMP JUMPDEST PUSH0 PUSH1 0x20 DUP3 ADD SWAP1 POP DUP2 DUP2 SUB PUSH0 DUP4 ADD MSTORE PUSH2 0x1169 DUP2 PUSH2 0x1130 JUMP JUMPDEST SWAP1 POP SWAP2 SWAP1 POP JUMP JUMPDEST PUSH32 0x4F6E6C792062757965722063616E2063616C6C2074686973206D6574686F6400 PUSH0 DUP3 ADD MSTORE POP JUMP JUMPDEST PUSH0 PUSH2 0x11A4 PUSH1 0x1F DUP4 PUSH2 0xFF4 JUMP JUMPDEST SWAP2 POP PUSH2 0x11AF DUP3 PUSH2 0x1170 JUMP JUMPDEST PUSH1 0x20 DUP3 ADD SWAP1 POP SWAP2 SWAP1 POP JUMP JUMPDEST PUSH0 PUSH1 0x20 DUP3 ADD SWAP1 POP DUP2 DUP2 SUB PUSH0 DUP4 ADD MSTORE PUSH2 0x11D1 DUP2 PUSH2 0x1198 JUMP JUMPDEST SWAP1 POP SWAP2 SWAP1 POP JUMP INVALID LOG2 PUSH5 0x6970667358 0x22 SLT KECCAK256 PUSH9 0xA5ADCF149362FC01D0 BYTE CODESIZE BASEFEE 0x1E 0xA5 DUP9 BLOCKHASH LOG3 0xA7 0x21 0xAD GT SWAP9 0xC4 0x27 PC PUSH17 0x918B8539264736F6C6343000816003300 "
				},
				"gasEstimates": {
					"creation": {
						"codeDepositCost": "924400",
						"executionCost": "infinite",
						"totalCost": "infinite"
					},
					"external": {
						"approval(uint256,address)": "3138",
						"approveSale(uint256)": "24898",
						"buyer(uint256)": "2917",
						"cancelSale(uint256)": "infinite",
						"depositEarnest(uint256)": "4894",
						"escrowAmount(uint256)": "infinite",
						"finalizeSale(uint256)": "infinite",
						"getBalance()": "380",
						"inspectionPassed(uint256)": "2852",
						"inspector()": "2596",
						"isListed(uint256)": "2895",
						"lender()": "2597",
						"list(uint256,address,uint256,uint256)": "infinite",
						"nftAddress()": "2528",
						"purchasePrice(uint256)": "infinite",
						"seller()": "2532",
						"updateInspectionStatus(uint256,bool)": "27112"
					}
				},
				"methodIdentifiers": {
					"approval(uint256,address)": "b848de35",
					"approveSale(uint256)": "14a72feb",
					"buyer(uint256)": "4dd4acaf",
					"cancelSale(uint256)": "bd94b005",
					"depositEarnest(uint256)": "e740f770",
					"escrowAmount(uint256)": "5d19e56c",
					"finalizeSale(uint256)": "aa929380",
					"getBalance()": "12065fe0",
					"inspectionPassed(uint256)": "5eed5fff",
					"inspector()": "ed2cee9e",
					"isListed(uint256)": "fcce4883",
					"lender()": "bcead63e",
					"list(uint256,address,uint256,uint256)": "c9f0ec7e",
					"nftAddress()": "5bf8633a",
					"purchasePrice(uint256)": "77fbc4ae",
					"seller()": "08551a53",
					"updateInspectionStatus(uint256,bool)": "9d0e5fd6"
				}
			},
			"storageLayout": {
				"storage": [
					{
						"astId": 13,
						"contract": "Millow/contracts/Escrow.sol:Escrow",
						"label": "nftAddress",
						"offset": 0,
						"slot": "0",
						"type": "t_address"
					},
					{
						"astId": 15,
						"contract": "Millow/contracts/Escrow.sol:Escrow",
						"label": "seller",
						"offset": 0,
						"slot": "1",
						"type": "t_address_payable"
					},
					{
						"astId": 17,
						"contract": "Millow/contracts/Escrow.sol:Escrow",
						"label": "inspector",
						"offset": 0,
						"slot": "2",
						"type": "t_address"
					},
					{
						"astId": 19,
						"contract": "Millow/contracts/Escrow.sol:Escrow",
						"label": "lender",
						"offset": 0,
						"slot": "3",
						"type": "t_address"
					},
					{
						"astId": 63,
						"contract": "Millow/contracts/Escrow.sol:Escrow",
						"label": "isListed",
						"offset": 0,
						"slot": "4",
						"type": "t_mapping(t_uint256,t_bool)"
					},
					{
						"astId": 67,
						"contract": "Millow/contracts/Escrow.sol:Escrow",
						"label": "purchasePrice",
						"offset": 0,
						"slot": "5",
						"type": "t_mapping(t_uint256,t_uint256)"
					},
					{
						"astId": 71,
						"contract": "Millow/contracts/Escrow.sol:Escrow",
						"label": "escrowAmount",
						"offset": 0,
						"slot": "6",
						"type": "t_mapping(t_uint256,t_uint256)"
					},
					{
						"astId": 75,
						"contract": "Millow/contracts/Escrow.sol:Escrow",
						"label": "buyer",
						"offset": 0,
						"slot": "7",
						"type": "t_mapping(t_uint256,t_address)"
					},
					{
						"astId": 79,
						"contract": "Millow/contracts/Escrow.sol:Escrow",
						"label": "inspectionPassed",
						"offset": 0,
						"slot": "8",
						"type": "t_mapping(t_uint256,t_bool)"
					},
					{
						"astId": 85,
						"contract": "Millow/contracts/Escrow.sol:Escrow",
						"label": "approval",
						"offset": 0,
						"slot": "9",
						"type": "t_mapping(t_uint256,t_mapping(t_address,t_bool))"
					}
				],
				"types": {
					"t_address": {
						"encoding": "inplace",
						"label": "address",
						"numberOfBytes": "20"
					},
					"t_address_payable": {
						"encoding": "inplace",
						"label": "address payable",
						"numberOfBytes": "20"
					},
					"t_bool": {
						"encoding": "inplace",
						"label": "bool",
						"numberOfBytes": "1"
					},
					"t_mapping(t_address,t_bool)": {
						"encoding": "mapping",
						"key": "t_address",
						"label": "mapping(address => bool)",
						"numberOfBytes": "32",
						"value": "t_bool"
					},
					"t_mapping(t_uint256,t_address)": {
						"encoding": "mapping",
						"key": "t_uint256",
						"label": "mapping(uint256 => address)",
						"numberOfBytes": "32",
						"value": "t_address"
					},
					"t_mapping(t_uint256,t_bool)": {
						"encoding": "mapping",
						"key": "t_uint256",
						"label": "mapping(uint256 => bool)",
						"numberOfBytes": "32",
						"value": "t_bool"
					},
					"t_mapping(t_uint256,t_mapping(t_address,t_bool))": {
						"encoding": "mapping",
						"key": "t_uint256",
						"label": "mapping(uint256 => mapping(address => bool))",
						"numberOfBytes": "32",
						"value": "t_mapping(t_address,t_bool)"
					},
					"t_mapping(t_uint256,t_uint256)": {
						"encoding": "mapping",
						"key": "t_uint256",
						"label": "mapping(uint256 => uint256)",
						"numberOfBytes": "32",
						"value": "t_uint256"
					},
					"t_uint256": {
						"encoding": "inplace",
						"label": "uint256",
						"numberOfBytes": "32"
					}
				}
			},
			"userdoc": {
				"kind": "user",
				"methods": {},
				"version": 1
			}
		}
	}
}